{
	"data": {
		"bytecode": {
			"linkReferences": {},
			"object": "60806040526608e1bc9bf04000601255660aa87bee53800060135563622737306015553480156200002f57600080fd5b5060405162003343380380620033438339810160408190526200005291620006b3565b83836040518060400160405280601481526020017f4e6f6d206465206c6120636f6c6c656374696f6e0000000000000000000000008152506040518060400160405280600681526020016514d6535093d360d21b815250620000c3620000bd6200025460201b60201c565b62000258565b8151620000d890600390602085019062000496565b508051620000ee90600490602084019062000496565b50600060015550508051825114620001685760405162461bcd60e51b815260206004820152603260248201527f5061796d656e7453706c69747465723a2070617965657320616e6420736861726044820152710cae640d8cadccee8d040dad2e6dac2e8c6d60731b60648201526084015b60405180910390fd5b6000825111620001bb5760405162461bcd60e51b815260206004820152601a60248201527f5061796d656e7453706c69747465723a206e6f2070617965657300000000000060448201526064016200015f565b60005b8251811015620002275762000212838281518110620001e157620001e1620007c2565b6020026020010151838381518110620001fe57620001fe620007c2565b6020026020010151620002a860201b60201c565b806200021e81620007ee565b915050620001be565b505050601482905580516200024490601090602084019062000496565b5050915160175550620008649050565b3390565b600080546001600160a01b038381166001600160a01b0319831681178455604051919092169283917f8be0079c531659141344cd1fd0a4f28419497f9722a3daafe3b4186f6b6457e09190a35050565b6001600160a01b038216620003155760405162461bcd60e51b815260206004820152602c60248201527f5061796d656e7453706c69747465723a206163636f756e74206973207468652060448201526b7a65726f206164647265737360a01b60648201526084016200015f565b60008111620003675760405162461bcd60e51b815260206004820152601d60248201527f5061796d656e7453706c69747465723a2073686172657320617265203000000060448201526064016200015f565b6001600160a01b0382166000908152600b602052604090205415620003e35760405162461bcd60e51b815260206004820152602b60248201527f5061796d656e7453706c69747465723a206163636f756e7420616c726561647960448201526a206861732073686172657360a81b60648201526084016200015f565b600d8054600181019091557fd7b6990105719101dabeb77144f2a3385c8033acd3af97e9423a695e81ad1eb50180546001600160a01b0319166001600160a01b0384169081179091556000908152600b602052604090208190556009546200044d9082906200080c565b600955604080516001600160a01b0384168152602081018390527f40c340f65e17194d14ddddb073d3c9f888e3cb52b5aae0c6c7706b4fbc905fac910160405180910390a15050565b828054620004a49062000827565b90600052602060002090601f016020900481019282620004c8576000855562000513565b82601f10620004e357805160ff191683800117855562000513565b8280016001018555821562000513579182015b8281111562000513578251825591602001919060010190620004f6565b506200052192915062000525565b5090565b5b8082111562000521576000815560010162000526565b634e487b7160e01b600052604160045260246000fd5b604051601f8201601f191681016001600160401b03811182821017156200057d576200057d6200053c565b604052919050565b60006001600160401b03821115620005a157620005a16200053c565b5060051b60200190565b600082601f830112620005bd57600080fd5b81516020620005d6620005d08362000585565b62000552565b82815260059290921b84018101918181019086841115620005f657600080fd5b8286015b84811015620006135780518352918301918301620005fa565b509695505050505050565b600082601f8301126200063057600080fd5b81516001600160401b038111156200064c576200064c6200053c565b602062000662601f8301601f1916820162000552565b82815285828487010111156200067757600080fd5b60005b83811015620006975785810183015182820184015282016200067a565b83811115620006a95760008385840101525b5095945050505050565b60008060008060808587031215620006ca57600080fd5b84516001600160401b0380821115620006e257600080fd5b818701915087601f830112620006f757600080fd5b815160206200070a620005d08362000585565b82815260059290921b8401810191818101908b8411156200072a57600080fd5b948201945b83861015620007615785516001600160a01b0381168114620007515760008081fd5b825294820194908201906200072f565b918a01519198509093505050808211156200077b57600080fd5b6200078988838901620005ab565b9450604087015193506060870151915080821115620007a757600080fd5b50620007b6878288016200061e565b91505092959194509250565b634e487b7160e01b600052603260045260246000fd5b634e487b7160e01b600052601160045260246000fd5b6000600019821415620008055762000805620007d8565b5060010190565b60008219821115620008225762000822620007d8565b500190565b600181811c908216806200083c57607f821691505b602082108114156200085e57634e487b7160e01b600052602260045260246000fd5b50919050565b612acf80620008746000396000f3fe6080604052600436106102605760003560e01c80637cb6475911610144578063b88d4fde116100b6578063ce7c2ac21161007a578063ce7c2ac214610753578063d79779b214610789578063e33b7de3146107bf578063e985e9c5146107d4578063f2fde38b1461081d578063f8dcbddb1461083d57600080fd5b8063b88d4fde146106ac578063c45ac050146106cc578063c87b56dd146106ec578063cbccefb21461070c578063cbce4c971461073357600080fd5b806399d138001161010857806399d13800146105f65780639b6860c814610623578063a0bcfc7f14610639578063a22cb46514610659578063a3f8eace14610679578063ac5ae11b1461069957600080fd5b80637cb647591461054d5780638b83209b1461056d5780638da5cb5b1461058d57806395d89b41146105ab5780639852595c146105c057600080fd5b8063406072a9116101dd5780635be7fde8116101a15780635be7fde8146104b85780636352211e146104cd5780636c0360eb146104ed57806370a0823114610502578063715018a614610522578063734c66bd1461053757600080fd5b8063406072a9146103ff57806342842e0e1461044557806348b75044146104655780634b11faaf14610485578063525f8a5c1461049857600080fd5b80631916558711610224578063191655871461037e5780631cbaee2d1461039e57806323b872dd146103b45780632eb4a7ab146103d45780633a98ef39146103ea57600080fd5b806301ffc9a7146102aa57806306fdde03146102df578063081812fc14610301578063095ea7b31461033957806318160ddd1461035b57600080fd5b366102a55760405162461bcd60e51b815260206004820152601060248201526f13db9b1e481a59881e5bdd481b5a5b9d60821b60448201526064015b60405180910390fd5b600080fd5b3480156102b657600080fd5b506102ca6102c536600461236e565b61085d565b60405190151581526020015b60405180910390f35b3480156102eb57600080fd5b506102f46108af565b6040516102d691906123e3565b34801561030d57600080fd5b5061032161031c3660046123f6565b610941565b6040516001600160a01b0390911681526020016102d6565b34801561034557600080fd5b50610359610354366004612424565b610985565b005b34801561036757600080fd5b50600254600154035b6040519081526020016102d6565b34801561038a57600080fd5b50610359610399366004612450565b610a25565b3480156103aa57600080fd5b5061037060155481565b3480156103c057600080fd5b506103596103cf36600461246d565b610b1b565b3480156103e057600080fd5b5061037060145481565b3480156103f657600080fd5b50600954610370565b34801561040b57600080fd5b5061037061041a3660046124ae565b6001600160a01b039182166000908152600f6020908152604080832093909416825291909152205490565b34801561045157600080fd5b5061035961046036600461246d565b610cac565b34801561047157600080fd5b506103596104803660046124ae565b610ccc565b6103596104933660046124e7565b610dec565b3480156104a457600080fd5b506103596104b33660046123f6565b611144565b3480156104c457600080fd5b50610359611173565b3480156104d957600080fd5b506103216104e83660046123f6565b6111a1565b3480156104f957600080fd5b506102f46111ac565b34801561050e57600080fd5b5061037061051d366004612450565b61123a565b34801561052e57600080fd5b50610359611289565b34801561054357600080fd5b5061037060125481565b34801561055957600080fd5b506103596105683660046123f6565b6112bf565b34801561057957600080fd5b506103216105883660046123f6565b6112ee565b34801561059957600080fd5b506000546001600160a01b0316610321565b3480156105b757600080fd5b506102f461131e565b3480156105cc57600080fd5b506103706105db366004612450565b6001600160a01b03166000908152600c602052604090205490565b34801561060257600080fd5b50610370610611366004612450565b60166020526000908152604090205481565b34801561062f57600080fd5b5061037060135481565b34801561064557600080fd5b506103596106543660046125ff565b61132d565b34801561066557600080fd5b50610359610674366004612656565b61136e565b34801561068557600080fd5b50610370610694366004612450565b611404565b6103596106a7366004612424565b61144c565b3480156106b857600080fd5b506103596106c7366004612684565b6115ff565b3480156106d857600080fd5b506103706106e73660046124ae565b611649565b3480156106f857600080fd5b506102f46107073660046123f6565b611714565b34801561071857600080fd5b506011546107269060ff1681565b6040516102d6919061271a565b34801561073f57600080fd5b5061035961074e366004612424565b61179d565b34801561075f57600080fd5b5061037061076e366004612450565b6001600160a01b03166000908152600b602052604090205490565b34801561079557600080fd5b506103706107a4366004612450565b6001600160a01b03166000908152600e602052604090205490565b3480156107cb57600080fd5b50600a54610370565b3480156107e057600080fd5b506102ca6107ef3660046124ae565b6001600160a01b03918216600090815260086020908152604080832093909416825291909152205460ff1690565b34801561082957600080fd5b50610359610838366004612450565b611895565b34801561084957600080fd5b506103596108583660046123f6565b61192d565b60006301ffc9a760e01b6001600160e01b03198316148061088e57506380ac58cd60e01b6001600160e01b03198316145b806108a95750635b5e139f60e01b6001600160e01b03198316145b92915050565b6060600380546108be90612742565b80601f01602080910402602001604051908101604052809291908181526020018280546108ea90612742565b80156109375780601f1061090c57610100808354040283529160200191610937565b820191906000526020600020905b81548152906001019060200180831161091a57829003601f168201915b5050505050905090565b600061094c8261198d565b610969576040516333d1c03960e21b815260040160405180910390fd5b506000908152600760205260409020546001600160a01b031690565b6000610990826111a1565b9050336001600160a01b038216146109c9576109ac81336107ef565b6109c9576040516367d9dca160e11b815260040160405180910390fd5b60008281526007602052604080822080546001600160a01b0319166001600160a01b0387811691821790925591518593918516917f8c5be1e5ebec7d5bd14f71427d1e84f3dd0314c0f7b2291e5b200ac8c7c3b92591a4505050565b6001600160a01b0381166000908152600b6020526040902054610a5a5760405162461bcd60e51b815260040161029c9061277d565b6000610a6582611404565b905080610a845760405162461bcd60e51b815260040161029c906127c3565b6001600160a01b0382166000908152600c602052604081208054839290610aac908490612824565b9250508190555080600a6000828254610ac59190612824565b90915550610ad5905082826119b5565b604080516001600160a01b0384168152602081018390527fdf20fd1e76bc69d672e4814fafb2c449bba3a5369d8359adf9e05e6fde87b056910160405180910390a15050565b6000610b2682611ace565b9050836001600160a01b0316816001600160a01b031614610b595760405162a1148160e81b815260040160405180910390fd5b60008281526007602052604090208054338082146001600160a01b03881690911417610ba657610b8986336107ef565b610ba657604051632ce44b5f60e11b815260040160405180910390fd5b6001600160a01b038516610bcd57604051633a954ecd60e21b815260040160405180910390fd5b8015610bd857600082555b6001600160a01b038681166000908152600660205260408082208054600019019055918716808252919020805460010190554260a01b17600160e11b17600085815260056020526040902055600160e11b8316610c635760018401600081815260056020526040902054610c61576001548114610c615760008181526005602052604090208490555b505b83856001600160a01b0316876001600160a01b03167fddf252ad1be2c89b69c2b068fc378daa952ba7f163c4a11628f55a4df523b3ef60405160405180910390a4505050505050565b610cc7838383604051806020016040528060008152506115ff565b505050565b6001600160a01b0381166000908152600b6020526040902054610d015760405162461bcd60e51b815260040161029c9061277d565b6000610d0d8383611649565b905080610d2c5760405162461bcd60e51b815260040161029c906127c3565b6001600160a01b038084166000908152600f6020908152604080832093861683529290529081208054839290610d63908490612824565b90915550506001600160a01b0383166000908152600e602052604081208054839290610d90908490612824565b90915550610da19050838383611b2f565b604080516001600160a01b038481168252602082018490528516917f3be5b7a71e84ed12875d241991c70855ac5817d847039e17a9d895c1ceb0f18a910160405180910390a2505050565b323314610e3b5760405162461bcd60e51b815260206004820152601e60248201527f5468652063616c6c657220697320616e6f7468657220636f6e74726163740000604482015260640161029c565b60125480610e785760405162461bcd60e51b815260206004820152600a6024820152690507269636520697320360b41b604482015260640161029c565b601554421015610ed55760405162461bcd60e51b815260206004820152602260248201527f57686974656c6973742053616c6520686173206e6f7420737461727465642079604482015261195d60f21b606482015260840161029c565b601554610ee490614650612824565b4210610f325760405162461bcd60e51b815260206004820152601a60248201527f57686974656c6973742053616c652069732066696e6973686564000000000000604482015260640161029c565b600160115460ff166004811115610f4b57610f4b612704565b14610f985760405162461bcd60e51b815260206004820152601f60248201527f57686974656c6973742073616c65206973206e6f742061637469766174656400604482015260640161029c565b610fa3338484611b81565b610fe15760405162461bcd60e51b815260206004820152600f60248201526e139bdd081dda1a5d195b1a5cdd1959608a1b604482015260640161029c565b33600090815260166020526040902054600190610fff908690612824565b11156110625760405162461bcd60e51b815260206004820152602c60248201527f596f752063616e206f6e6c79206765742031204e4654206f6e2074686520576860448201526b6974656c6973742053616c6560a01b606482015260840161029c565b610ad9846110736002546001540390565b61107d9190612824565b11156110c15760405162461bcd60e51b815260206004820152601360248201527213585e081cdd5c1c1b1e48195e18d959591959606a1b604482015260640161029c565b6110cb848261283c565b34101561110e5760405162461bcd60e51b81526020600482015260116024820152704e6f7420656e6f756768742066756e647360781b604482015260640161029c565b336000908152601660205260408120805486929061112d908490612824565b9091555061113d90508585611c02565b5050505050565b6000546001600160a01b0316331461116e5760405162461bcd60e51b815260040161029c9061285b565b601555565b60005b60175481101561119e5761118c610399826112ee565b8061119681612890565b915050611176565b50565b60006108a982611ace565b601080546111b990612742565b80601f01602080910402602001604051908101604052809291908181526020018280546111e590612742565b80156112325780601f1061120757610100808354040283529160200191611232565b820191906000526020600020905b81548152906001019060200180831161121557829003601f168201915b505050505081565b60006001600160a01b038216611263576040516323d3ad8160e21b815260040160405180910390fd5b506001600160a01b031660009081526006602052604090205467ffffffffffffffff1690565b6000546001600160a01b031633146112b35760405162461bcd60e51b815260040161029c9061285b565b6112bd6000611c1c565b565b6000546001600160a01b031633146112e95760405162461bcd60e51b815260040161029c9061285b565b601455565b6000600d8281548110611303576113036128ab565b6000918252602090912001546001600160a01b031692915050565b6060600480546108be90612742565b6000546001600160a01b031633146113575760405162461bcd60e51b815260040161029c9061285b565b805161136a9060109060208401906122bf565b5050565b6001600160a01b0382163314156113985760405163b06307db60e01b815260040160405180910390fd5b3360008181526008602090815260408083206001600160a01b03871680855290835292819020805460ff191686151590811790915590519081529192917f17307eab39ab6107e8899845ad3d59bd9653f200f220920489ca2b5937696c31910160405180910390a35050565b600080611410600a5490565b61141a9047612824565b90506114458382611440866001600160a01b03166000908152600c602052604090205490565b611c6c565b9392505050565b32331461149b5760405162461bcd60e51b815260206004820152601e60248201527f5468652063616c6c657220697320616e6f7468657220636f6e74726163740000604482015260640161029c565b601354806114d85760405162461bcd60e51b815260206004820152600a6024820152690507269636520697320360b41b604482015260640161029c565b600260115460ff1660048111156114f1576114f1612704565b1461153e5760405162461bcd60e51b815260206004820152601c60248201527f5075626c69632073616c65206973206e6f742061637469766174656400000000604482015260640161029c565b61154c611324610ad9612824565b8261155a6002546001540390565b6115649190612824565b11156115a85760405162461bcd60e51b815260206004820152601360248201527213585e081cdd5c1c1b1e48195e18d959591959606a1b604482015260640161029c565b6115b2828261283c565b3410156115f55760405162461bcd60e51b81526020600482015260116024820152704e6f7420656e6f756768742066756e647360781b604482015260640161029c565b610cc78383611c02565b61160a848484610b1b565b6001600160a01b0383163b156116435761162684848484611caa565b611643576040516368d2bf6b60e11b815260040160405180910390fd5b50505050565b6001600160a01b0382166000908152600e602052604081205481906040516370a0823160e01b81523060048201526001600160a01b038616906370a0823190602401602060405180830381865afa1580156116a8573d6000803e3d6000fd5b505050506040513d601f19601f820116820180604052508101906116cc91906128c1565b6116d69190612824565b6001600160a01b038086166000908152600f602090815260408083209388168352929052205490915061170c9084908390611c6c565b949350505050565b606061171f8261198d565b61176b5760405162461bcd60e51b815260206004820152601f60248201527f55524920717565727920666f72206e6f6e6578697374656e7420746f6b656e00604482015260640161029c565b601061177683611d92565b6040516020016117879291906128f6565b6040516020818303038152906040529050919050565b6000546001600160a01b031633146117c75760405162461bcd60e51b815260040161029c9061285b565b600260115460ff1660048111156117e0576117e0612704565b1161182d5760405162461bcd60e51b815260206004820152601d60248201527f4769667420697320616674657220746865207075626c69632073616c65000000604482015260640161029c565b611e618161183e6002546001540390565b6118489190612824565b111561188b5760405162461bcd60e51b815260206004820152601260248201527152656163686564206d617820537570706c7960701b604482015260640161029c565b61136a8282611c02565b6000546001600160a01b031633146118bf5760405162461bcd60e51b815260040161029c9061285b565b6001600160a01b0381166119245760405162461bcd60e51b815260206004820152602660248201527f4f776e61626c653a206e6577206f776e657220697320746865207a65726f206160448201526564647265737360d01b606482015260840161029c565b61119e81611c1c565b6000546001600160a01b031633146119575760405162461bcd60e51b815260040161029c9061285b565b80600481111561196957611969612704565b6011805460ff1916600183600481111561198557611985612704565b021790555050565b6000600154821080156108a9575050600090815260056020526040902054600160e01b161590565b80471015611a055760405162461bcd60e51b815260206004820152601d60248201527f416464726573733a20696e73756666696369656e742062616c616e6365000000604482015260640161029c565b6000826001600160a01b03168260405160006040518083038185875af1925050503d8060008114611a52576040519150601f19603f3d011682016040523d82523d6000602084013e611a57565b606091505b5050905080610cc75760405162461bcd60e51b815260206004820152603a60248201527f416464726573733a20756e61626c6520746f2073656e642076616c75652c207260448201527f6563697069656e74206d61792068617665207265766572746564000000000000606482015260840161029c565b600081600154811015611b1657600081815260056020526040902054600160e01b8116611b14575b80611445575060001901600081815260056020526040902054611af6565b505b604051636f96cda160e11b815260040160405180910390fd5b604080516001600160a01b038416602482015260448082018490528251808303909101815260649091019091526020810180516001600160e01b031663a9059cbb60e01b179052610cc7908490611e90565b600061170c611bc9856040516bffffffffffffffffffffffff19606083901b166020820152600090603401604051602081830303815290604052805190602001209050919050565b848480806020026020016040519081016040528093929190818152602001838360200280828437600092019190915250611f6292505050565b61136a828260405180602001604052806000815250611f71565b600080546001600160a01b038381166001600160a01b0319831681178455604051919092169283917f8be0079c531659141344cd1fd0a4f28419497f9722a3daafe3b4186f6b6457e09190a35050565b6009546001600160a01b0384166000908152600b602052604081205490918391611c96908661283c565b611ca091906129c7565b61170c91906129db565b604051630a85bd0160e11b81526000906001600160a01b0385169063150b7a0290611cdf9033908990889088906004016129f2565b6020604051808303816000875af1925050508015611d1a575060408051601f3d908101601f19168201909252611d1791810190612a2f565b60015b611d75573d808015611d48576040519150601f19603f3d011682016040523d82523d6000602084013e611d4d565b606091505b508051611d6d576040516368d2bf6b60e11b815260040160405180910390fd5b805181602001fd5b6001600160e01b031916630a85bd0160e11b149050949350505050565b606081611db65750506040805180820190915260018152600360fc1b602082015290565b8160005b8115611de05780611dca81612890565b9150611dd99050600a836129c7565b9150611dba565b60008167ffffffffffffffff811115611dfb57611dfb612573565b6040519080825280601f01601f191660200182016040528015611e25576020820181803683370190505b5090505b841561170c57611e3a6001836129db565b9150611e47600a86612a4c565b611e52906030612824565b60f81b818381518110611e6757611e676128ab565b60200101906001600160f81b031916908160001a905350611e89600a866129c7565b9450611e29565b6000611ee5826040518060400160405280602081526020017f5361666545524332303a206c6f772d6c6576656c2063616c6c206661696c6564815250856001600160a01b0316611fd79092919063ffffffff16565b805190915015610cc75780806020019051810190611f039190612a60565b610cc75760405162461bcd60e51b815260206004820152602a60248201527f5361666545524332303a204552433230206f7065726174696f6e20646964206e6044820152691bdd081cdd58d8d9595960b21b606482015260840161029c565b60006114458260145485611fe6565b611f7b8383611ffc565b6001600160a01b0383163b15610cc7576001548281035b611fa56000868380600101945086611caa565b611fc2576040516368d2bf6b60e11b815260040160405180910390fd5b818110611f9257816001541461113d57600080fd5b606061170c84846000856120d9565b600082611ff3858461220a565b14949350505050565b6001546001600160a01b03831661202557604051622e076360e81b815260040160405180910390fd5b816120435760405163b562e8dd60e01b815260040160405180910390fd5b6001600160a01b038316600081815260066020526040902080546801000000000000000185020190554260a01b6001841460e11b1717600082815260056020526040902055808281015b6040516001830192906001600160a01b038716906000907fddf252ad1be2c89b69c2b068fc378daa952ba7f163c4a11628f55a4df523b3ef908290a480821061208d5760015550505050565b60608247101561213a5760405162461bcd60e51b815260206004820152602660248201527f416464726573733a20696e73756666696369656e742062616c616e636520666f6044820152651c8818d85b1b60d21b606482015260840161029c565b6001600160a01b0385163b6121915760405162461bcd60e51b815260206004820152601d60248201527f416464726573733a2063616c6c20746f206e6f6e2d636f6e7472616374000000604482015260640161029c565b600080866001600160a01b031685876040516121ad9190612a7d565b60006040518083038185875af1925050503d80600081146121ea576040519150601f19603f3d011682016040523d82523d6000602084013e6121ef565b606091505b50915091506121ff828286612257565b979650505050505050565b600081815b845181101561224f5761223b8286838151811061222e5761222e6128ab565b6020026020010151612290565b91508061224781612890565b91505061220f565b509392505050565b60608315612266575081611445565b8251156122765782518084602001fd5b8160405162461bcd60e51b815260040161029c91906123e3565b60008183106122ac576000828152602084905260409020611445565b6000838152602083905260409020611445565b8280546122cb90612742565b90600052602060002090601f0160209004810192826122ed5760008555612333565b82601f1061230657805160ff1916838001178555612333565b82800160010185558215612333579182015b82811115612333578251825591602001919060010190612318565b5061233f929150612343565b5090565b5b8082111561233f5760008155600101612344565b6001600160e01b03198116811461119e57600080fd5b60006020828403121561238057600080fd5b813561144581612358565b60005b838110156123a657818101518382015260200161238e565b838111156116435750506000910152565b600081518084526123cf81602086016020860161238b565b601f01601f19169290920160200192915050565b60208152600061144560208301846123b7565b60006020828403121561240857600080fd5b5035919050565b6001600160a01b038116811461119e57600080fd5b6000806040838503121561243757600080fd5b82356124428161240f565b946020939093013593505050565b60006020828403121561246257600080fd5b81356114458161240f565b60008060006060848603121561248257600080fd5b833561248d8161240f565b9250602084013561249d8161240f565b929592945050506040919091013590565b600080604083850312156124c157600080fd5b82356124cc8161240f565b915060208301356124dc8161240f565b809150509250929050565b600080600080606085870312156124fd57600080fd5b84356125088161240f565b935060208501359250604085013567ffffffffffffffff8082111561252c57600080fd5b818701915087601f83011261254057600080fd5b81358181111561254f57600080fd5b8860208260051b850101111561256457600080fd5b95989497505060200194505050565b634e487b7160e01b600052604160045260246000fd5b600067ffffffffffffffff808411156125a4576125a4612573565b604051601f8501601f19908116603f011681019082821181831017156125cc576125cc612573565b816040528093508581528686860111156125e557600080fd5b858560208301376000602087830101525050509392505050565b60006020828403121561261157600080fd5b813567ffffffffffffffff81111561262857600080fd5b8201601f8101841361263957600080fd5b61170c84823560208401612589565b801515811461119e57600080fd5b6000806040838503121561266957600080fd5b82356126748161240f565b915060208301356124dc81612648565b6000806000806080858703121561269a57600080fd5b84356126a58161240f565b935060208501356126b58161240f565b925060408501359150606085013567ffffffffffffffff8111156126d857600080fd5b8501601f810187136126e957600080fd5b6126f887823560208401612589565b91505092959194509250565b634e487b7160e01b600052602160045260246000fd5b602081016005831061273c57634e487b7160e01b600052602160045260246000fd5b91905290565b600181811c9082168061275657607f821691505b6020821081141561277757634e487b7160e01b600052602260045260246000fd5b50919050565b60208082526026908201527f5061796d656e7453706c69747465723a206163636f756e7420686173206e6f2060408201526573686172657360d01b606082015260800190565b6020808252602b908201527f5061796d656e7453706c69747465723a206163636f756e74206973206e6f742060408201526a191d59481c185e5b595b9d60aa1b606082015260800190565b634e487b7160e01b600052601160045260246000fd5b600082198211156128375761283761280e565b500190565b60008160001904831182151516156128565761285661280e565b500290565b6020808252818101527f4f776e61626c653a2063616c6c6572206973206e6f7420746865206f776e6572604082015260600190565b60006000198214156128a4576128a461280e565b5060010190565b634e487b7160e01b600052603260045260246000fd5b6000602082840312156128d357600080fd5b5051919050565b600081516128ec81856020860161238b565b9290920192915050565b600080845481600182811c91508083168061291257607f831692505b602080841082141561293257634e487b7160e01b86526022600452602486fd5b818015612946576001811461295757612984565b60ff19861689528489019650612984565b60008b81526020902060005b8681101561297c5781548b820152908501908301612963565b505084890196505b5050505050506129a861299782866128da565b64173539b7b760d91b815260050190565b95945050505050565b634e487b7160e01b600052601260045260246000fd5b6000826129d6576129d66129b1565b500490565b6000828210156129ed576129ed61280e565b500390565b6001600160a01b0385811682528416602082015260408101839052608060608201819052600090612a25908301846123b7565b9695505050505050565b600060208284031215612a4157600080fd5b815161144581612358565b600082612a5b57612a5b6129b1565b500690565b600060208284031215612a7257600080fd5b815161144581612648565b60008251612a8f81846020870161238b565b919091019291505056fea26469706673582212203d3b9649c16a6a6ae9371a1098479bf3e82faf97c1bff6baef7fac9a4ec542d964736f6c634300080c0033",
			"opcodes": "PUSH1 0x80 PUSH1 0x40 MSTORE PUSH7 0x8E1BC9BF04000 PUSH1 0x12 SSTORE PUSH7 0xAA87BEE538000 PUSH1 0x13 SSTORE PUSH4 0x62273730 PUSH1 0x15 SSTORE CALLVALUE DUP1 ISZERO PUSH3 0x2F JUMPI PUSH1 0x0 DUP1 REVERT JUMPDEST POP PUSH1 0x40 MLOAD PUSH3 0x3343 CODESIZE SUB DUP1 PUSH3 0x3343 DUP4 CODECOPY DUP2 ADD PUSH1 0x40 DUP2 SWAP1 MSTORE PUSH3 0x52 SWAP2 PUSH3 0x6B3 JUMP JUMPDEST DUP4 DUP4 PUSH1 0x40 MLOAD DUP1 PUSH1 0x40 ADD PUSH1 0x40 MSTORE DUP1 PUSH1 0x14 DUP2 MSTORE PUSH1 0x20 ADD PUSH32 0x4E6F6D206465206C6120636F6C6C656374696F6E000000000000000000000000 DUP2 MSTORE POP PUSH1 0x40 MLOAD DUP1 PUSH1 0x40 ADD PUSH1 0x40 MSTORE DUP1 PUSH1 0x6 DUP2 MSTORE PUSH1 0x20 ADD PUSH6 0x14D6535093D3 PUSH1 0xD2 SHL DUP2 MSTORE POP PUSH3 0xC3 PUSH3 0xBD PUSH3 0x254 PUSH1 0x20 SHL PUSH1 0x20 SHR JUMP JUMPDEST PUSH3 0x258 JUMP JUMPDEST DUP2 MLOAD PUSH3 0xD8 SWAP1 PUSH1 0x3 SWAP1 PUSH1 0x20 DUP6 ADD SWAP1 PUSH3 0x496 JUMP JUMPDEST POP DUP1 MLOAD PUSH3 0xEE SWAP1 PUSH1 0x4 SWAP1 PUSH1 0x20 DUP5 ADD SWAP1 PUSH3 0x496 JUMP JUMPDEST POP PUSH1 0x0 PUSH1 0x1 SSTORE POP POP DUP1 MLOAD DUP3 MLOAD EQ PUSH3 0x168 JUMPI PUSH1 0x40 MLOAD PUSH3 0x461BCD PUSH1 0xE5 SHL DUP2 MSTORE PUSH1 0x20 PUSH1 0x4 DUP3 ADD MSTORE PUSH1 0x32 PUSH1 0x24 DUP3 ADD MSTORE PUSH32 0x5061796D656E7453706C69747465723A2070617965657320616E642073686172 PUSH1 0x44 DUP3 ADD MSTORE PUSH18 0xCAE640D8CADCCEE8D040DAD2E6DAC2E8C6D PUSH1 0x73 SHL PUSH1 0x64 DUP3 ADD MSTORE PUSH1 0x84 ADD JUMPDEST PUSH1 0x40 MLOAD DUP1 SWAP2 SUB SWAP1 REVERT JUMPDEST PUSH1 0x0 DUP3 MLOAD GT PUSH3 0x1BB JUMPI PUSH1 0x40 MLOAD PUSH3 0x461BCD PUSH1 0xE5 SHL DUP2 MSTORE PUSH1 0x20 PUSH1 0x4 DUP3 ADD MSTORE PUSH1 0x1A PUSH1 0x24 DUP3 ADD MSTORE PUSH32 0x5061796D656E7453706C69747465723A206E6F20706179656573000000000000 PUSH1 0x44 DUP3 ADD MSTORE PUSH1 0x64 ADD PUSH3 0x15F JUMP JUMPDEST PUSH1 0x0 JUMPDEST DUP3 MLOAD DUP2 LT ISZERO PUSH3 0x227 JUMPI PUSH3 0x212 DUP4 DUP3 DUP2 MLOAD DUP2 LT PUSH3 0x1E1 JUMPI PUSH3 0x1E1 PUSH3 0x7C2 JUMP JUMPDEST PUSH1 0x20 MUL PUSH1 0x20 ADD ADD MLOAD DUP4 DUP4 DUP2 MLOAD DUP2 LT PUSH3 0x1FE JUMPI PUSH3 0x1FE PUSH3 0x7C2 JUMP JUMPDEST PUSH1 0x20 MUL PUSH1 0x20 ADD ADD MLOAD PUSH3 0x2A8 PUSH1 0x20 SHL PUSH1 0x20 SHR JUMP JUMPDEST DUP1 PUSH3 0x21E DUP2 PUSH3 0x7EE JUMP JUMPDEST SWAP2 POP POP PUSH3 0x1BE JUMP JUMPDEST POP POP POP PUSH1 0x14 DUP3 SWAP1 SSTORE DUP1 MLOAD PUSH3 0x244 SWAP1 PUSH1 0x10 SWAP1 PUSH1 0x20 DUP5 ADD SWAP1 PUSH3 0x496 JUMP JUMPDEST POP POP SWAP2 MLOAD PUSH1 0x17 SSTORE POP PUSH3 0x864 SWAP1 POP JUMP JUMPDEST CALLER SWAP1 JUMP JUMPDEST PUSH1 0x0 DUP1 SLOAD PUSH1 0x1 PUSH1 0x1 PUSH1 0xA0 SHL SUB DUP4 DUP2 AND PUSH1 0x1 PUSH1 0x1 PUSH1 0xA0 SHL SUB NOT DUP4 AND DUP2 OR DUP5 SSTORE PUSH1 0x40 MLOAD SWAP2 SWAP1 SWAP3 AND SWAP3 DUP4 SWAP2 PUSH32 0x8BE0079C531659141344CD1FD0A4F28419497F9722A3DAAFE3B4186F6B6457E0 SWAP2 SWAP1 LOG3 POP POP JUMP JUMPDEST PUSH1 0x1 PUSH1 0x1 PUSH1 0xA0 SHL SUB DUP3 AND PUSH3 0x315 JUMPI PUSH1 0x40 MLOAD PUSH3 0x461BCD PUSH1 0xE5 SHL DUP2 MSTORE PUSH1 0x20 PUSH1 0x4 DUP3 ADD MSTORE PUSH1 0x2C PUSH1 0x24 DUP3 ADD MSTORE PUSH32 0x5061796D656E7453706C69747465723A206163636F756E742069732074686520 PUSH1 0x44 DUP3 ADD MSTORE PUSH12 0x7A65726F2061646472657373 PUSH1 0xA0 SHL PUSH1 0x64 DUP3 ADD MSTORE PUSH1 0x84 ADD PUSH3 0x15F JUMP JUMPDEST PUSH1 0x0 DUP2 GT PUSH3 0x367 JUMPI PUSH1 0x40 MLOAD PUSH3 0x461BCD PUSH1 0xE5 SHL DUP2 MSTORE PUSH1 0x20 PUSH1 0x4 DUP3 ADD MSTORE PUSH1 0x1D PUSH1 0x24 DUP3 ADD MSTORE PUSH32 0x5061796D656E7453706C69747465723A20736861726573206172652030000000 PUSH1 0x44 DUP3 ADD MSTORE PUSH1 0x64 ADD PUSH3 0x15F JUMP JUMPDEST PUSH1 0x1 PUSH1 0x1 PUSH1 0xA0 SHL SUB DUP3 AND PUSH1 0x0 SWAP1 DUP2 MSTORE PUSH1 0xB PUSH1 0x20 MSTORE PUSH1 0x40 SWAP1 KECCAK256 SLOAD ISZERO PUSH3 0x3E3 JUMPI PUSH1 0x40 MLOAD PUSH3 0x461BCD PUSH1 0xE5 SHL DUP2 MSTORE PUSH1 0x20 PUSH1 0x4 DUP3 ADD MSTORE PUSH1 0x2B PUSH1 0x24 DUP3 ADD MSTORE PUSH32 0x5061796D656E7453706C69747465723A206163636F756E7420616C7265616479 PUSH1 0x44 DUP3 ADD MSTORE PUSH11 0x2068617320736861726573 PUSH1 0xA8 SHL PUSH1 0x64 DUP3 ADD MSTORE PUSH1 0x84 ADD PUSH3 0x15F JUMP JUMPDEST PUSH1 0xD DUP1 SLOAD PUSH1 0x1 DUP2 ADD SWAP1 SWAP2 SSTORE PUSH32 0xD7B6990105719101DABEB77144F2A3385C8033ACD3AF97E9423A695E81AD1EB5 ADD DUP1 SLOAD PUSH1 0x1 PUSH1 0x1 PUSH1 0xA0 SHL SUB NOT AND PUSH1 0x1 PUSH1 0x1 PUSH1 0xA0 SHL SUB DUP5 AND SWAP1 DUP2 OR SWAP1 SWAP2 SSTORE PUSH1 0x0 SWAP1 DUP2 MSTORE PUSH1 0xB PUSH1 0x20 MSTORE PUSH1 0x40 SWAP1 KECCAK256 DUP2 SWAP1 SSTORE PUSH1 0x9 SLOAD PUSH3 0x44D SWAP1 DUP3 SWAP1 PUSH3 0x80C JUMP JUMPDEST PUSH1 0x9 SSTORE PUSH1 0x40 DUP1 MLOAD PUSH1 0x1 PUSH1 0x1 PUSH1 0xA0 SHL SUB DUP5 AND DUP2 MSTORE PUSH1 0x20 DUP2 ADD DUP4 SWAP1 MSTORE PUSH32 0x40C340F65E17194D14DDDDB073D3C9F888E3CB52B5AAE0C6C7706B4FBC905FAC SWAP2 ADD PUSH1 0x40 MLOAD DUP1 SWAP2 SUB SWAP1 LOG1 POP POP JUMP JUMPDEST DUP3 DUP1 SLOAD PUSH3 0x4A4 SWAP1 PUSH3 0x827 JUMP JUMPDEST SWAP1 PUSH1 0x0 MSTORE PUSH1 0x20 PUSH1 0x0 KECCAK256 SWAP1 PUSH1 0x1F ADD PUSH1 0x20 SWAP1 DIV DUP2 ADD SWAP3 DUP3 PUSH3 0x4C8 JUMPI PUSH1 0x0 DUP6 SSTORE PUSH3 0x513 JUMP JUMPDEST DUP3 PUSH1 0x1F LT PUSH3 0x4E3 JUMPI DUP1 MLOAD PUSH1 0xFF NOT AND DUP4 DUP1 ADD OR DUP6 SSTORE PUSH3 0x513 JUMP JUMPDEST DUP3 DUP1 ADD PUSH1 0x1 ADD DUP6 SSTORE DUP3 ISZERO PUSH3 0x513 JUMPI SWAP2 DUP3 ADD JUMPDEST DUP3 DUP2 GT ISZERO PUSH3 0x513 JUMPI DUP3 MLOAD DUP3 SSTORE SWAP2 PUSH1 0x20 ADD SWAP2 SWAP1 PUSH1 0x1 ADD SWAP1 PUSH3 0x4F6 JUMP JUMPDEST POP PUSH3 0x521 SWAP3 SWAP2 POP PUSH3 0x525 JUMP JUMPDEST POP SWAP1 JUMP JUMPDEST JUMPDEST DUP1 DUP3 GT ISZERO PUSH3 0x521 JUMPI PUSH1 0x0 DUP2 SSTORE PUSH1 0x1 ADD PUSH3 0x526 JUMP JUMPDEST PUSH4 0x4E487B71 PUSH1 0xE0 SHL PUSH1 0x0 MSTORE PUSH1 0x41 PUSH1 0x4 MSTORE PUSH1 0x24 PUSH1 0x0 REVERT JUMPDEST PUSH1 0x40 MLOAD PUSH1 0x1F DUP3 ADD PUSH1 0x1F NOT AND DUP2 ADD PUSH1 0x1 PUSH1 0x1 PUSH1 0x40 SHL SUB DUP2 GT DUP3 DUP3 LT OR ISZERO PUSH3 0x57D JUMPI PUSH3 0x57D PUSH3 0x53C JUMP JUMPDEST PUSH1 0x40 MSTORE SWAP2 SWAP1 POP JUMP JUMPDEST PUSH1 0x0 PUSH1 0x1 PUSH1 0x1 PUSH1 0x40 SHL SUB DUP3 GT ISZERO PUSH3 0x5A1 JUMPI PUSH3 0x5A1 PUSH3 0x53C JUMP JUMPDEST POP PUSH1 0x5 SHL PUSH1 0x20 ADD SWAP1 JUMP JUMPDEST PUSH1 0x0 DUP3 PUSH1 0x1F DUP4 ADD SLT PUSH3 0x5BD JUMPI PUSH1 0x0 DUP1 REVERT JUMPDEST DUP2 MLOAD PUSH1 0x20 PUSH3 0x5D6 PUSH3 0x5D0 DUP4 PUSH3 0x585 JUMP JUMPDEST PUSH3 0x552 JUMP JUMPDEST DUP3 DUP2 MSTORE PUSH1 0x5 SWAP3 SWAP1 SWAP3 SHL DUP5 ADD DUP2 ADD SWAP2 DUP2 DUP2 ADD SWAP1 DUP7 DUP5 GT ISZERO PUSH3 0x5F6 JUMPI PUSH1 0x0 DUP1 REVERT JUMPDEST DUP3 DUP7 ADD JUMPDEST DUP5 DUP2 LT ISZERO PUSH3 0x613 JUMPI DUP1 MLOAD DUP4 MSTORE SWAP2 DUP4 ADD SWAP2 DUP4 ADD PUSH3 0x5FA JUMP JUMPDEST POP SWAP7 SWAP6 POP POP POP POP POP POP JUMP JUMPDEST PUSH1 0x0 DUP3 PUSH1 0x1F DUP4 ADD SLT PUSH3 0x630 JUMPI PUSH1 0x0 DUP1 REVERT JUMPDEST DUP2 MLOAD PUSH1 0x1 PUSH1 0x1 PUSH1 0x40 SHL SUB DUP2 GT ISZERO PUSH3 0x64C JUMPI PUSH3 0x64C PUSH3 0x53C JUMP JUMPDEST PUSH1 0x20 PUSH3 0x662 PUSH1 0x1F DUP4 ADD PUSH1 0x1F NOT AND DUP3 ADD PUSH3 0x552 JUMP JUMPDEST DUP3 DUP2 MSTORE DUP6 DUP3 DUP5 DUP8 ADD ADD GT ISZERO PUSH3 0x677 JUMPI PUSH1 0x0 DUP1 REVERT JUMPDEST PUSH1 0x0 JUMPDEST DUP4 DUP2 LT ISZERO PUSH3 0x697 JUMPI DUP6 DUP2 ADD DUP4 ADD MLOAD DUP3 DUP3 ADD DUP5 ADD MSTORE DUP3 ADD PUSH3 0x67A JUMP JUMPDEST DUP4 DUP2 GT ISZERO PUSH3 0x6A9 JUMPI PUSH1 0x0 DUP4 DUP6 DUP5 ADD ADD MSTORE JUMPDEST POP SWAP6 SWAP5 POP POP POP POP POP JUMP JUMPDEST PUSH1 0x0 DUP1 PUSH1 0x0 DUP1 PUSH1 0x80 DUP6 DUP8 SUB SLT ISZERO PUSH3 0x6CA JUMPI PUSH1 0x0 DUP1 REVERT JUMPDEST DUP5 MLOAD PUSH1 0x1 PUSH1 0x1 PUSH1 0x40 SHL SUB DUP1 DUP3 GT ISZERO PUSH3 0x6E2 JUMPI PUSH1 0x0 DUP1 REVERT JUMPDEST DUP2 DUP8 ADD SWAP2 POP DUP8 PUSH1 0x1F DUP4 ADD SLT PUSH3 0x6F7 JUMPI PUSH1 0x0 DUP1 REVERT JUMPDEST DUP2 MLOAD PUSH1 0x20 PUSH3 0x70A PUSH3 0x5D0 DUP4 PUSH3 0x585 JUMP JUMPDEST DUP3 DUP2 MSTORE PUSH1 0x5 SWAP3 SWAP1 SWAP3 SHL DUP5 ADD DUP2 ADD SWAP2 DUP2 DUP2 ADD SWAP1 DUP12 DUP5 GT ISZERO PUSH3 0x72A JUMPI PUSH1 0x0 DUP1 REVERT JUMPDEST SWAP5 DUP3 ADD SWAP5 JUMPDEST DUP4 DUP7 LT ISZERO PUSH3 0x761 JUMPI DUP6 MLOAD PUSH1 0x1 PUSH1 0x1 PUSH1 0xA0 SHL SUB DUP2 AND DUP2 EQ PUSH3 0x751 JUMPI PUSH1 0x0 DUP1 DUP2 REVERT JUMPDEST DUP3 MSTORE SWAP5 DUP3 ADD SWAP5 SWAP1 DUP3 ADD SWAP1 PUSH3 0x72F JUMP JUMPDEST SWAP2 DUP11 ADD MLOAD SWAP2 SWAP9 POP SWAP1 SWAP4 POP POP POP DUP1 DUP3 GT ISZERO PUSH3 0x77B JUMPI PUSH1 0x0 DUP1 REVERT JUMPDEST PUSH3 0x789 DUP9 DUP4 DUP10 ADD PUSH3 0x5AB JUMP JUMPDEST SWAP5 POP PUSH1 0x40 DUP8 ADD MLOAD SWAP4 POP PUSH1 0x60 DUP8 ADD MLOAD SWAP2 POP DUP1 DUP3 GT ISZERO PUSH3 0x7A7 JUMPI PUSH1 0x0 DUP1 REVERT JUMPDEST POP PUSH3 0x7B6 DUP8 DUP3 DUP9 ADD PUSH3 0x61E JUMP JUMPDEST SWAP2 POP POP SWAP3 SWAP6 SWAP2 SWAP5 POP SWAP3 POP JUMP JUMPDEST PUSH4 0x4E487B71 PUSH1 0xE0 SHL PUSH1 0x0 MSTORE PUSH1 0x32 PUSH1 0x4 MSTORE PUSH1 0x24 PUSH1 0x0 REVERT JUMPDEST PUSH4 0x4E487B71 PUSH1 0xE0 SHL PUSH1 0x0 MSTORE PUSH1 0x11 PUSH1 0x4 MSTORE PUSH1 0x24 PUSH1 0x0 REVERT JUMPDEST PUSH1 0x0 PUSH1 0x0 NOT DUP3 EQ ISZERO PUSH3 0x805 JUMPI PUSH3 0x805 PUSH3 0x7D8 JUMP JUMPDEST POP PUSH1 0x1 ADD SWAP1 JUMP JUMPDEST PUSH1 0x0 DUP3 NOT DUP3 GT ISZERO PUSH3 0x822 JUMPI PUSH3 0x822 PUSH3 0x7D8 JUMP JUMPDEST POP ADD SWAP1 JUMP JUMPDEST PUSH1 0x1 DUP2 DUP2 SHR SWAP1 DUP3 AND DUP1 PUSH3 0x83C JUMPI PUSH1 0x7F DUP3 AND SWAP2 POP JUMPDEST PUSH1 0x20 DUP3 LT DUP2 EQ ISZERO PUSH3 0x85E JUMPI PUSH4 0x4E487B71 PUSH1 0xE0 SHL PUSH1 0x0 MSTORE PUSH1 0x22 PUSH1 0x4 MSTORE PUSH1 0x24 PUSH1 0x0 REVERT JUMPDEST POP SWAP2 SWAP1 POP JUMP JUMPDEST PUSH2 0x2ACF DUP1 PUSH3 0x874 PUSH1 0x0 CODECOPY PUSH1 0x0 RETURN INVALID PUSH1 0x80 PUSH1 0x40 MSTORE PUSH1 0x4 CALLDATASIZE LT PUSH2 0x260 JUMPI PUSH1 0x0 CALLDATALOAD PUSH1 0xE0 SHR DUP1 PUSH4 0x7CB64759 GT PUSH2 0x144 JUMPI DUP1 PUSH4 0xB88D4FDE GT PUSH2 0xB6 JUMPI DUP1 PUSH4 0xCE7C2AC2 GT PUSH2 0x7A JUMPI DUP1 PUSH4 0xCE7C2AC2 EQ PUSH2 0x753 JUMPI DUP1 PUSH4 0xD79779B2 EQ PUSH2 0x789 JUMPI DUP1 PUSH4 0xE33B7DE3 EQ PUSH2 0x7BF JUMPI DUP1 PUSH4 0xE985E9C5 EQ PUSH2 0x7D4 JUMPI DUP1 PUSH4 0xF2FDE38B EQ PUSH2 0x81D JUMPI DUP1 PUSH4 0xF8DCBDDB EQ PUSH2 0x83D JUMPI PUSH1 0x0 DUP1 REVERT JUMPDEST DUP1 PUSH4 0xB88D4FDE EQ PUSH2 0x6AC JUMPI DUP1 PUSH4 0xC45AC050 EQ PUSH2 0x6CC JUMPI DUP1 PUSH4 0xC87B56DD EQ PUSH2 0x6EC JUMPI DUP1 PUSH4 0xCBCCEFB2 EQ PUSH2 0x70C JUMPI DUP1 PUSH4 0xCBCE4C97 EQ PUSH2 0x733 JUMPI PUSH1 0x0 DUP1 REVERT JUMPDEST DUP1 PUSH4 0x99D13800 GT PUSH2 0x108 JUMPI DUP1 PUSH4 0x99D13800 EQ PUSH2 0x5F6 JUMPI DUP1 PUSH4 0x9B6860C8 EQ PUSH2 0x623 JUMPI DUP1 PUSH4 0xA0BCFC7F EQ PUSH2 0x639 JUMPI DUP1 PUSH4 0xA22CB465 EQ PUSH2 0x659 JUMPI DUP1 PUSH4 0xA3F8EACE EQ PUSH2 0x679 JUMPI DUP1 PUSH4 0xAC5AE11B EQ PUSH2 0x699 JUMPI PUSH1 0x0 DUP1 REVERT JUMPDEST DUP1 PUSH4 0x7CB64759 EQ PUSH2 0x54D JUMPI DUP1 PUSH4 0x8B83209B EQ PUSH2 0x56D JUMPI DUP1 PUSH4 0x8DA5CB5B EQ PUSH2 0x58D JUMPI DUP1 PUSH4 0x95D89B41 EQ PUSH2 0x5AB JUMPI DUP1 PUSH4 0x9852595C EQ PUSH2 0x5C0 JUMPI PUSH1 0x0 DUP1 REVERT JUMPDEST DUP1 PUSH4 0x406072A9 GT PUSH2 0x1DD JUMPI DUP1 PUSH4 0x5BE7FDE8 GT PUSH2 0x1A1 JUMPI DUP1 PUSH4 0x5BE7FDE8 EQ PUSH2 0x4B8 JUMPI DUP1 PUSH4 0x6352211E EQ PUSH2 0x4CD JUMPI DUP1 PUSH4 0x6C0360EB EQ PUSH2 0x4ED JUMPI DUP1 PUSH4 0x70A08231 EQ PUSH2 0x502 JUMPI DUP1 PUSH4 0x715018A6 EQ PUSH2 0x522 JUMPI DUP1 PUSH4 0x734C66BD EQ PUSH2 0x537 JUMPI PUSH1 0x0 DUP1 REVERT JUMPDEST DUP1 PUSH4 0x406072A9 EQ PUSH2 0x3FF JUMPI DUP1 PUSH4 0x42842E0E EQ PUSH2 0x445 JUMPI DUP1 PUSH4 0x48B75044 EQ PUSH2 0x465 JUMPI DUP1 PUSH4 0x4B11FAAF EQ PUSH2 0x485 JUMPI DUP1 PUSH4 0x525F8A5C EQ PUSH2 0x498 JUMPI PUSH1 0x0 DUP1 REVERT JUMPDEST DUP1 PUSH4 0x19165587 GT PUSH2 0x224 JUMPI DUP1 PUSH4 0x19165587 EQ PUSH2 0x37E JUMPI DUP1 PUSH4 0x1CBAEE2D EQ PUSH2 0x39E JUMPI DUP1 PUSH4 0x23B872DD EQ PUSH2 0x3B4 JUMPI DUP1 PUSH4 0x2EB4A7AB EQ PUSH2 0x3D4 JUMPI DUP1 PUSH4 0x3A98EF39 EQ PUSH2 0x3EA JUMPI PUSH1 0x0 DUP1 REVERT JUMPDEST DUP1 PUSH4 0x1FFC9A7 EQ PUSH2 0x2AA JUMPI DUP1 PUSH4 0x6FDDE03 EQ PUSH2 0x2DF JUMPI DUP1 PUSH4 0x81812FC EQ PUSH2 0x301 JUMPI DUP1 PUSH4 0x95EA7B3 EQ PUSH2 0x339 JUMPI DUP1 PUSH4 0x18160DDD EQ PUSH2 0x35B JUMPI PUSH1 0x0 DUP1 REVERT JUMPDEST CALLDATASIZE PUSH2 0x2A5 JUMPI PUSH1 0x40 MLOAD PUSH3 0x461BCD PUSH1 0xE5 SHL DUP2 MSTORE PUSH1 0x20 PUSH1 0x4 DUP3 ADD MSTORE PUSH1 0x10 PUSH1 0x24 DUP3 ADD MSTORE PUSH16 0x13DB9B1E481A59881E5BDD481B5A5B9D PUSH1 0x82 SHL PUSH1 0x44 DUP3 ADD MSTORE PUSH1 0x64 ADD JUMPDEST PUSH1 0x40 MLOAD DUP1 SWAP2 SUB SWAP1 REVERT JUMPDEST PUSH1 0x0 DUP1 REVERT JUMPDEST CALLVALUE DUP1 ISZERO PUSH2 0x2B6 JUMPI PUSH1 0x0 DUP1 REVERT JUMPDEST POP PUSH2 0x2CA PUSH2 0x2C5 CALLDATASIZE PUSH1 0x4 PUSH2 0x236E JUMP JUMPDEST PUSH2 0x85D JUMP JUMPDEST PUSH1 0x40 MLOAD SWAP1 ISZERO ISZERO DUP2 MSTORE PUSH1 0x20 ADD JUMPDEST PUSH1 0x40 MLOAD DUP1 SWAP2 SUB SWAP1 RETURN JUMPDEST CALLVALUE DUP1 ISZERO PUSH2 0x2EB JUMPI PUSH1 0x0 DUP1 REVERT JUMPDEST POP PUSH2 0x2F4 PUSH2 0x8AF JUMP JUMPDEST PUSH1 0x40 MLOAD PUSH2 0x2D6 SWAP2 SWAP1 PUSH2 0x23E3 JUMP JUMPDEST CALLVALUE DUP1 ISZERO PUSH2 0x30D JUMPI PUSH1 0x0 DUP1 REVERT JUMPDEST POP PUSH2 0x321 PUSH2 0x31C CALLDATASIZE PUSH1 0x4 PUSH2 0x23F6 JUMP JUMPDEST PUSH2 0x941 JUMP JUMPDEST PUSH1 0x40 MLOAD PUSH1 0x1 PUSH1 0x1 PUSH1 0xA0 SHL SUB SWAP1 SWAP2 AND DUP2 MSTORE PUSH1 0x20 ADD PUSH2 0x2D6 JUMP JUMPDEST CALLVALUE DUP1 ISZERO PUSH2 0x345 JUMPI PUSH1 0x0 DUP1 REVERT JUMPDEST POP PUSH2 0x359 PUSH2 0x354 CALLDATASIZE PUSH1 0x4 PUSH2 0x2424 JUMP JUMPDEST PUSH2 0x985 JUMP JUMPDEST STOP JUMPDEST CALLVALUE DUP1 ISZERO PUSH2 0x367 JUMPI PUSH1 0x0 DUP1 REVERT JUMPDEST POP PUSH1 0x2 SLOAD PUSH1 0x1 SLOAD SUB JUMPDEST PUSH1 0x40 MLOAD SWAP1 DUP2 MSTORE PUSH1 0x20 ADD PUSH2 0x2D6 JUMP JUMPDEST CALLVALUE DUP1 ISZERO PUSH2 0x38A JUMPI PUSH1 0x0 DUP1 REVERT JUMPDEST POP PUSH2 0x359 PUSH2 0x399 CALLDATASIZE PUSH1 0x4 PUSH2 0x2450 JUMP JUMPDEST PUSH2 0xA25 JUMP JUMPDEST CALLVALUE DUP1 ISZERO PUSH2 0x3AA JUMPI PUSH1 0x0 DUP1 REVERT JUMPDEST POP PUSH2 0x370 PUSH1 0x15 SLOAD DUP2 JUMP JUMPDEST CALLVALUE DUP1 ISZERO PUSH2 0x3C0 JUMPI PUSH1 0x0 DUP1 REVERT JUMPDEST POP PUSH2 0x359 PUSH2 0x3CF CALLDATASIZE PUSH1 0x4 PUSH2 0x246D JUMP JUMPDEST PUSH2 0xB1B JUMP JUMPDEST CALLVALUE DUP1 ISZERO PUSH2 0x3E0 JUMPI PUSH1 0x0 DUP1 REVERT JUMPDEST POP PUSH2 0x370 PUSH1 0x14 SLOAD DUP2 JUMP JUMPDEST CALLVALUE DUP1 ISZERO PUSH2 0x3F6 JUMPI PUSH1 0x0 DUP1 REVERT JUMPDEST POP PUSH1 0x9 SLOAD PUSH2 0x370 JUMP JUMPDEST CALLVALUE DUP1 ISZERO PUSH2 0x40B JUMPI PUSH1 0x0 DUP1 REVERT JUMPDEST POP PUSH2 0x370 PUSH2 0x41A CALLDATASIZE PUSH1 0x4 PUSH2 0x24AE JUMP JUMPDEST PUSH1 0x1 PUSH1 0x1 PUSH1 0xA0 SHL SUB SWAP2 DUP3 AND PUSH1 0x0 SWAP1 DUP2 MSTORE PUSH1 0xF PUSH1 0x20 SWAP1 DUP2 MSTORE PUSH1 0x40 DUP1 DUP4 KECCAK256 SWAP4 SWAP1 SWAP5 AND DUP3 MSTORE SWAP2 SWAP1 SWAP2 MSTORE KECCAK256 SLOAD SWAP1 JUMP JUMPDEST CALLVALUE DUP1 ISZERO PUSH2 0x451 JUMPI PUSH1 0x0 DUP1 REVERT JUMPDEST POP PUSH2 0x359 PUSH2 0x460 CALLDATASIZE PUSH1 0x4 PUSH2 0x246D JUMP JUMPDEST PUSH2 0xCAC JUMP JUMPDEST CALLVALUE DUP1 ISZERO PUSH2 0x471 JUMPI PUSH1 0x0 DUP1 REVERT JUMPDEST POP PUSH2 0x359 PUSH2 0x480 CALLDATASIZE PUSH1 0x4 PUSH2 0x24AE JUMP JUMPDEST PUSH2 0xCCC JUMP JUMPDEST PUSH2 0x359 PUSH2 0x493 CALLDATASIZE PUSH1 0x4 PUSH2 0x24E7 JUMP JUMPDEST PUSH2 0xDEC JUMP JUMPDEST CALLVALUE DUP1 ISZERO PUSH2 0x4A4 JUMPI PUSH1 0x0 DUP1 REVERT JUMPDEST POP PUSH2 0x359 PUSH2 0x4B3 CALLDATASIZE PUSH1 0x4 PUSH2 0x23F6 JUMP JUMPDEST PUSH2 0x1144 JUMP JUMPDEST CALLVALUE DUP1 ISZERO PUSH2 0x4C4 JUMPI PUSH1 0x0 DUP1 REVERT JUMPDEST POP PUSH2 0x359 PUSH2 0x1173 JUMP JUMPDEST CALLVALUE DUP1 ISZERO PUSH2 0x4D9 JUMPI PUSH1 0x0 DUP1 REVERT JUMPDEST POP PUSH2 0x321 PUSH2 0x4E8 CALLDATASIZE PUSH1 0x4 PUSH2 0x23F6 JUMP JUMPDEST PUSH2 0x11A1 JUMP JUMPDEST CALLVALUE DUP1 ISZERO PUSH2 0x4F9 JUMPI PUSH1 0x0 DUP1 REVERT JUMPDEST POP PUSH2 0x2F4 PUSH2 0x11AC JUMP JUMPDEST CALLVALUE DUP1 ISZERO PUSH2 0x50E JUMPI PUSH1 0x0 DUP1 REVERT JUMPDEST POP PUSH2 0x370 PUSH2 0x51D CALLDATASIZE PUSH1 0x4 PUSH2 0x2450 JUMP JUMPDEST PUSH2 0x123A JUMP JUMPDEST CALLVALUE DUP1 ISZERO PUSH2 0x52E JUMPI PUSH1 0x0 DUP1 REVERT JUMPDEST POP PUSH2 0x359 PUSH2 0x1289 JUMP JUMPDEST CALLVALUE DUP1 ISZERO PUSH2 0x543 JUMPI PUSH1 0x0 DUP1 REVERT JUMPDEST POP PUSH2 0x370 PUSH1 0x12 SLOAD DUP2 JUMP JUMPDEST CALLVALUE DUP1 ISZERO PUSH2 0x559 JUMPI PUSH1 0x0 DUP1 REVERT JUMPDEST POP PUSH2 0x359 PUSH2 0x568 CALLDATASIZE PUSH1 0x4 PUSH2 0x23F6 JUMP JUMPDEST PUSH2 0x12BF JUMP JUMPDEST CALLVALUE DUP1 ISZERO PUSH2 0x579 JUMPI PUSH1 0x0 DUP1 REVERT JUMPDEST POP PUSH2 0x321 PUSH2 0x588 CALLDATASIZE PUSH1 0x4 PUSH2 0x23F6 JUMP JUMPDEST PUSH2 0x12EE JUMP JUMPDEST CALLVALUE DUP1 ISZERO PUSH2 0x599 JUMPI PUSH1 0x0 DUP1 REVERT JUMPDEST POP PUSH1 0x0 SLOAD PUSH1 0x1 PUSH1 0x1 PUSH1 0xA0 SHL SUB AND PUSH2 0x321 JUMP JUMPDEST CALLVALUE DUP1 ISZERO PUSH2 0x5B7 JUMPI PUSH1 0x0 DUP1 REVERT JUMPDEST POP PUSH2 0x2F4 PUSH2 0x131E JUMP JUMPDEST CALLVALUE DUP1 ISZERO PUSH2 0x5CC JUMPI PUSH1 0x0 DUP1 REVERT JUMPDEST POP PUSH2 0x370 PUSH2 0x5DB CALLDATASIZE PUSH1 0x4 PUSH2 0x2450 JUMP JUMPDEST PUSH1 0x1 PUSH1 0x1 PUSH1 0xA0 SHL SUB AND PUSH1 0x0 SWAP1 DUP2 MSTORE PUSH1 0xC PUSH1 0x20 MSTORE PUSH1 0x40 SWAP1 KECCAK256 SLOAD SWAP1 JUMP JUMPDEST CALLVALUE DUP1 ISZERO PUSH2 0x602 JUMPI PUSH1 0x0 DUP1 REVERT JUMPDEST POP PUSH2 0x370 PUSH2 0x611 CALLDATASIZE PUSH1 0x4 PUSH2 0x2450 JUMP JUMPDEST PUSH1 0x16 PUSH1 0x20 MSTORE PUSH1 0x0 SWAP1 DUP2 MSTORE PUSH1 0x40 SWAP1 KECCAK256 SLOAD DUP2 JUMP JUMPDEST CALLVALUE DUP1 ISZERO PUSH2 0x62F JUMPI PUSH1 0x0 DUP1 REVERT JUMPDEST POP PUSH2 0x370 PUSH1 0x13 SLOAD DUP2 JUMP JUMPDEST CALLVALUE DUP1 ISZERO PUSH2 0x645 JUMPI PUSH1 0x0 DUP1 REVERT JUMPDEST POP PUSH2 0x359 PUSH2 0x654 CALLDATASIZE PUSH1 0x4 PUSH2 0x25FF JUMP JUMPDEST PUSH2 0x132D JUMP JUMPDEST CALLVALUE DUP1 ISZERO PUSH2 0x665 JUMPI PUSH1 0x0 DUP1 REVERT JUMPDEST POP PUSH2 0x359 PUSH2 0x674 CALLDATASIZE PUSH1 0x4 PUSH2 0x2656 JUMP JUMPDEST PUSH2 0x136E JUMP JUMPDEST CALLVALUE DUP1 ISZERO PUSH2 0x685 JUMPI PUSH1 0x0 DUP1 REVERT JUMPDEST POP PUSH2 0x370 PUSH2 0x694 CALLDATASIZE PUSH1 0x4 PUSH2 0x2450 JUMP JUMPDEST PUSH2 0x1404 JUMP JUMPDEST PUSH2 0x359 PUSH2 0x6A7 CALLDATASIZE PUSH1 0x4 PUSH2 0x2424 JUMP JUMPDEST PUSH2 0x144C JUMP JUMPDEST CALLVALUE DUP1 ISZERO PUSH2 0x6B8 JUMPI PUSH1 0x0 DUP1 REVERT JUMPDEST POP PUSH2 0x359 PUSH2 0x6C7 CALLDATASIZE PUSH1 0x4 PUSH2 0x2684 JUMP JUMPDEST PUSH2 0x15FF JUMP JUMPDEST CALLVALUE DUP1 ISZERO PUSH2 0x6D8 JUMPI PUSH1 0x0 DUP1 REVERT JUMPDEST POP PUSH2 0x370 PUSH2 0x6E7 CALLDATASIZE PUSH1 0x4 PUSH2 0x24AE JUMP JUMPDEST PUSH2 0x1649 JUMP JUMPDEST CALLVALUE DUP1 ISZERO PUSH2 0x6F8 JUMPI PUSH1 0x0 DUP1 REVERT JUMPDEST POP PUSH2 0x2F4 PUSH2 0x707 CALLDATASIZE PUSH1 0x4 PUSH2 0x23F6 JUMP JUMPDEST PUSH2 0x1714 JUMP JUMPDEST CALLVALUE DUP1 ISZERO PUSH2 0x718 JUMPI PUSH1 0x0 DUP1 REVERT JUMPDEST POP PUSH1 0x11 SLOAD PUSH2 0x726 SWAP1 PUSH1 0xFF AND DUP2 JUMP JUMPDEST PUSH1 0x40 MLOAD PUSH2 0x2D6 SWAP2 SWAP1 PUSH2 0x271A JUMP JUMPDEST CALLVALUE DUP1 ISZERO PUSH2 0x73F JUMPI PUSH1 0x0 DUP1 REVERT JUMPDEST POP PUSH2 0x359 PUSH2 0x74E CALLDATASIZE PUSH1 0x4 PUSH2 0x2424 JUMP JUMPDEST PUSH2 0x179D JUMP JUMPDEST CALLVALUE DUP1 ISZERO PUSH2 0x75F JUMPI PUSH1 0x0 DUP1 REVERT JUMPDEST POP PUSH2 0x370 PUSH2 0x76E CALLDATASIZE PUSH1 0x4 PUSH2 0x2450 JUMP JUMPDEST PUSH1 0x1 PUSH1 0x1 PUSH1 0xA0 SHL SUB AND PUSH1 0x0 SWAP1 DUP2 MSTORE PUSH1 0xB PUSH1 0x20 MSTORE PUSH1 0x40 SWAP1 KECCAK256 SLOAD SWAP1 JUMP JUMPDEST CALLVALUE DUP1 ISZERO PUSH2 0x795 JUMPI PUSH1 0x0 DUP1 REVERT JUMPDEST POP PUSH2 0x370 PUSH2 0x7A4 CALLDATASIZE PUSH1 0x4 PUSH2 0x2450 JUMP JUMPDEST PUSH1 0x1 PUSH1 0x1 PUSH1 0xA0 SHL SUB AND PUSH1 0x0 SWAP1 DUP2 MSTORE PUSH1 0xE PUSH1 0x20 MSTORE PUSH1 0x40 SWAP1 KECCAK256 SLOAD SWAP1 JUMP JUMPDEST CALLVALUE DUP1 ISZERO PUSH2 0x7CB JUMPI PUSH1 0x0 DUP1 REVERT JUMPDEST POP PUSH1 0xA SLOAD PUSH2 0x370 JUMP JUMPDEST CALLVALUE DUP1 ISZERO PUSH2 0x7E0 JUMPI PUSH1 0x0 DUP1 REVERT JUMPDEST POP PUSH2 0x2CA PUSH2 0x7EF CALLDATASIZE PUSH1 0x4 PUSH2 0x24AE JUMP JUMPDEST PUSH1 0x1 PUSH1 0x1 PUSH1 0xA0 SHL SUB SWAP2 DUP3 AND PUSH1 0x0 SWAP1 DUP2 MSTORE PUSH1 0x8 PUSH1 0x20 SWAP1 DUP2 MSTORE PUSH1 0x40 DUP1 DUP4 KECCAK256 SWAP4 SWAP1 SWAP5 AND DUP3 MSTORE SWAP2 SWAP1 SWAP2 MSTORE KECCAK256 SLOAD PUSH1 0xFF AND SWAP1 JUMP JUMPDEST CALLVALUE DUP1 ISZERO PUSH2 0x829 JUMPI PUSH1 0x0 DUP1 REVERT JUMPDEST POP PUSH2 0x359 PUSH2 0x838 CALLDATASIZE PUSH1 0x4 PUSH2 0x2450 JUMP JUMPDEST PUSH2 0x1895 JUMP JUMPDEST CALLVALUE DUP1 ISZERO PUSH2 0x849 JUMPI PUSH1 0x0 DUP1 REVERT JUMPDEST POP PUSH2 0x359 PUSH2 0x858 CALLDATASIZE PUSH1 0x4 PUSH2 0x23F6 JUMP JUMPDEST PUSH2 0x192D JUMP JUMPDEST PUSH1 0x0 PUSH4 0x1FFC9A7 PUSH1 0xE0 SHL PUSH1 0x1 PUSH1 0x1 PUSH1 0xE0 SHL SUB NOT DUP4 AND EQ DUP1 PUSH2 0x88E JUMPI POP PUSH4 0x80AC58CD PUSH1 0xE0 SHL PUSH1 0x1 PUSH1 0x1 PUSH1 0xE0 SHL SUB NOT DUP4 AND EQ JUMPDEST DUP1 PUSH2 0x8A9 JUMPI POP PUSH4 0x5B5E139F PUSH1 0xE0 SHL PUSH1 0x1 PUSH1 0x1 PUSH1 0xE0 SHL SUB NOT DUP4 AND EQ JUMPDEST SWAP3 SWAP2 POP POP JUMP JUMPDEST PUSH1 0x60 PUSH1 0x3 DUP1 SLOAD PUSH2 0x8BE SWAP1 PUSH2 0x2742 JUMP JUMPDEST DUP1 PUSH1 0x1F ADD PUSH1 0x20 DUP1 SWAP2 DIV MUL PUSH1 0x20 ADD PUSH1 0x40 MLOAD SWAP1 DUP2 ADD PUSH1 0x40 MSTORE DUP1 SWAP3 SWAP2 SWAP1 DUP2 DUP2 MSTORE PUSH1 0x20 ADD DUP3 DUP1 SLOAD PUSH2 0x8EA SWAP1 PUSH2 0x2742 JUMP JUMPDEST DUP1 ISZERO PUSH2 0x937 JUMPI DUP1 PUSH1 0x1F LT PUSH2 0x90C JUMPI PUSH2 0x100 DUP1 DUP4 SLOAD DIV MUL DUP4 MSTORE SWAP2 PUSH1 0x20 ADD SWAP2 PUSH2 0x937 JUMP JUMPDEST DUP3 ADD SWAP2 SWAP1 PUSH1 0x0 MSTORE PUSH1 0x20 PUSH1 0x0 KECCAK256 SWAP1 JUMPDEST DUP2 SLOAD DUP2 MSTORE SWAP1 PUSH1 0x1 ADD SWAP1 PUSH1 0x20 ADD DUP1 DUP4 GT PUSH2 0x91A JUMPI DUP3 SWAP1 SUB PUSH1 0x1F AND DUP3 ADD SWAP2 JUMPDEST POP POP POP POP POP SWAP1 POP SWAP1 JUMP JUMPDEST PUSH1 0x0 PUSH2 0x94C DUP3 PUSH2 0x198D JUMP JUMPDEST PUSH2 0x969 JUMPI PUSH1 0x40 MLOAD PUSH4 0x33D1C039 PUSH1 0xE2 SHL DUP2 MSTORE PUSH1 0x4 ADD PUSH1 0x40 MLOAD DUP1 SWAP2 SUB SWAP1 REVERT JUMPDEST POP PUSH1 0x0 SWAP1 DUP2 MSTORE PUSH1 0x7 PUSH1 0x20 MSTORE PUSH1 0x40 SWAP1 KECCAK256 SLOAD PUSH1 0x1 PUSH1 0x1 PUSH1 0xA0 SHL SUB AND SWAP1 JUMP JUMPDEST PUSH1 0x0 PUSH2 0x990 DUP3 PUSH2 0x11A1 JUMP JUMPDEST SWAP1 POP CALLER PUSH1 0x1 PUSH1 0x1 PUSH1 0xA0 SHL SUB DUP3 AND EQ PUSH2 0x9C9 JUMPI PUSH2 0x9AC DUP2 CALLER PUSH2 0x7EF JUMP JUMPDEST PUSH2 0x9C9 JUMPI PUSH1 0x40 MLOAD PUSH4 0x67D9DCA1 PUSH1 0xE1 SHL DUP2 MSTORE PUSH1 0x4 ADD PUSH1 0x40 MLOAD DUP1 SWAP2 SUB SWAP1 REVERT JUMPDEST PUSH1 0x0 DUP3 DUP2 MSTORE PUSH1 0x7 PUSH1 0x20 MSTORE PUSH1 0x40 DUP1 DUP3 KECCAK256 DUP1 SLOAD PUSH1 0x1 PUSH1 0x1 PUSH1 0xA0 SHL SUB NOT AND PUSH1 0x1 PUSH1 0x1 PUSH1 0xA0 SHL SUB DUP8 DUP2 AND SWAP2 DUP3 OR SWAP1 SWAP3 SSTORE SWAP2 MLOAD DUP6 SWAP4 SWAP2 DUP6 AND SWAP2 PUSH32 0x8C5BE1E5EBEC7D5BD14F71427D1E84F3DD0314C0F7B2291E5B200AC8C7C3B925 SWAP2 LOG4 POP POP POP JUMP JUMPDEST PUSH1 0x1 PUSH1 0x1 PUSH1 0xA0 SHL SUB DUP2 AND PUSH1 0x0 SWAP1 DUP2 MSTORE PUSH1 0xB PUSH1 0x20 MSTORE PUSH1 0x40 SWAP1 KECCAK256 SLOAD PUSH2 0xA5A JUMPI PUSH1 0x40 MLOAD PUSH3 0x461BCD PUSH1 0xE5 SHL DUP2 MSTORE PUSH1 0x4 ADD PUSH2 0x29C SWAP1 PUSH2 0x277D JUMP JUMPDEST PUSH1 0x0 PUSH2 0xA65 DUP3 PUSH2 0x1404 JUMP JUMPDEST SWAP1 POP DUP1 PUSH2 0xA84 JUMPI PUSH1 0x40 MLOAD PUSH3 0x461BCD PUSH1 0xE5 SHL DUP2 MSTORE PUSH1 0x4 ADD PUSH2 0x29C SWAP1 PUSH2 0x27C3 JUMP JUMPDEST PUSH1 0x1 PUSH1 0x1 PUSH1 0xA0 SHL SUB DUP3 AND PUSH1 0x0 SWAP1 DUP2 MSTORE PUSH1 0xC PUSH1 0x20 MSTORE PUSH1 0x40 DUP2 KECCAK256 DUP1 SLOAD DUP4 SWAP3 SWAP1 PUSH2 0xAAC SWAP1 DUP5 SWAP1 PUSH2 0x2824 JUMP JUMPDEST SWAP3 POP POP DUP2 SWAP1 SSTORE POP DUP1 PUSH1 0xA PUSH1 0x0 DUP3 DUP3 SLOAD PUSH2 0xAC5 SWAP2 SWAP1 PUSH2 0x2824 JUMP JUMPDEST SWAP1 SWAP2 SSTORE POP PUSH2 0xAD5 SWAP1 POP DUP3 DUP3 PUSH2 0x19B5 JUMP JUMPDEST PUSH1 0x40 DUP1 MLOAD PUSH1 0x1 PUSH1 0x1 PUSH1 0xA0 SHL SUB DUP5 AND DUP2 MSTORE PUSH1 0x20 DUP2 ADD DUP4 SWAP1 MSTORE PUSH32 0xDF20FD1E76BC69D672E4814FAFB2C449BBA3A5369D8359ADF9E05E6FDE87B056 SWAP2 ADD PUSH1 0x40 MLOAD DUP1 SWAP2 SUB SWAP1 LOG1 POP POP JUMP JUMPDEST PUSH1 0x0 PUSH2 0xB26 DUP3 PUSH2 0x1ACE JUMP JUMPDEST SWAP1 POP DUP4 PUSH1 0x1 PUSH1 0x1 PUSH1 0xA0 SHL SUB AND DUP2 PUSH1 0x1 PUSH1 0x1 PUSH1 0xA0 SHL SUB AND EQ PUSH2 0xB59 JUMPI PUSH1 0x40 MLOAD PUSH3 0xA11481 PUSH1 0xE8 SHL DUP2 MSTORE PUSH1 0x4 ADD PUSH1 0x40 MLOAD DUP1 SWAP2 SUB SWAP1 REVERT JUMPDEST PUSH1 0x0 DUP3 DUP2 MSTORE PUSH1 0x7 PUSH1 0x20 MSTORE PUSH1 0x40 SWAP1 KECCAK256 DUP1 SLOAD CALLER DUP1 DUP3 EQ PUSH1 0x1 PUSH1 0x1 PUSH1 0xA0 SHL SUB DUP9 AND SWAP1 SWAP2 EQ OR PUSH2 0xBA6 JUMPI PUSH2 0xB89 DUP7 CALLER PUSH2 0x7EF JUMP JUMPDEST PUSH2 0xBA6 JUMPI PUSH1 0x40 MLOAD PUSH4 0x2CE44B5F PUSH1 0xE1 SHL DUP2 MSTORE PUSH1 0x4 ADD PUSH1 0x40 MLOAD DUP1 SWAP2 SUB SWAP1 REVERT JUMPDEST PUSH1 0x1 PUSH1 0x1 PUSH1 0xA0 SHL SUB DUP6 AND PUSH2 0xBCD JUMPI PUSH1 0x40 MLOAD PUSH4 0x3A954ECD PUSH1 0xE2 SHL DUP2 MSTORE PUSH1 0x4 ADD PUSH1 0x40 MLOAD DUP1 SWAP2 SUB SWAP1 REVERT JUMPDEST DUP1 ISZERO PUSH2 0xBD8 JUMPI PUSH1 0x0 DUP3 SSTORE JUMPDEST PUSH1 0x1 PUSH1 0x1 PUSH1 0xA0 SHL SUB DUP7 DUP2 AND PUSH1 0x0 SWAP1 DUP2 MSTORE PUSH1 0x6 PUSH1 0x20 MSTORE PUSH1 0x40 DUP1 DUP3 KECCAK256 DUP1 SLOAD PUSH1 0x0 NOT ADD SWAP1 SSTORE SWAP2 DUP8 AND DUP1 DUP3 MSTORE SWAP2 SWAP1 KECCAK256 DUP1 SLOAD PUSH1 0x1 ADD SWAP1 SSTORE TIMESTAMP PUSH1 0xA0 SHL OR PUSH1 0x1 PUSH1 0xE1 SHL OR PUSH1 0x0 DUP6 DUP2 MSTORE PUSH1 0x5 PUSH1 0x20 MSTORE PUSH1 0x40 SWAP1 KECCAK256 SSTORE PUSH1 0x1 PUSH1 0xE1 SHL DUP4 AND PUSH2 0xC63 JUMPI PUSH1 0x1 DUP5 ADD PUSH1 0x0 DUP2 DUP2 MSTORE PUSH1 0x5 PUSH1 0x20 MSTORE PUSH1 0x40 SWAP1 KECCAK256 SLOAD PUSH2 0xC61 JUMPI PUSH1 0x1 SLOAD DUP2 EQ PUSH2 0xC61 JUMPI PUSH1 0x0 DUP2 DUP2 MSTORE PUSH1 0x5 PUSH1 0x20 MSTORE PUSH1 0x40 SWAP1 KECCAK256 DUP5 SWAP1 SSTORE JUMPDEST POP JUMPDEST DUP4 DUP6 PUSH1 0x1 PUSH1 0x1 PUSH1 0xA0 SHL SUB AND DUP8 PUSH1 0x1 PUSH1 0x1 PUSH1 0xA0 SHL SUB AND PUSH32 0xDDF252AD1BE2C89B69C2B068FC378DAA952BA7F163C4A11628F55A4DF523B3EF PUSH1 0x40 MLOAD PUSH1 0x40 MLOAD DUP1 SWAP2 SUB SWAP1 LOG4 POP POP POP POP POP POP JUMP JUMPDEST PUSH2 0xCC7 DUP4 DUP4 DUP4 PUSH1 0x40 MLOAD DUP1 PUSH1 0x20 ADD PUSH1 0x40 MSTORE DUP1 PUSH1 0x0 DUP2 MSTORE POP PUSH2 0x15FF JUMP JUMPDEST POP POP POP JUMP JUMPDEST PUSH1 0x1 PUSH1 0x1 PUSH1 0xA0 SHL SUB DUP2 AND PUSH1 0x0 SWAP1 DUP2 MSTORE PUSH1 0xB PUSH1 0x20 MSTORE PUSH1 0x40 SWAP1 KECCAK256 SLOAD PUSH2 0xD01 JUMPI PUSH1 0x40 MLOAD PUSH3 0x461BCD PUSH1 0xE5 SHL DUP2 MSTORE PUSH1 0x4 ADD PUSH2 0x29C SWAP1 PUSH2 0x277D JUMP JUMPDEST PUSH1 0x0 PUSH2 0xD0D DUP4 DUP4 PUSH2 0x1649 JUMP JUMPDEST SWAP1 POP DUP1 PUSH2 0xD2C JUMPI PUSH1 0x40 MLOAD PUSH3 0x461BCD PUSH1 0xE5 SHL DUP2 MSTORE PUSH1 0x4 ADD PUSH2 0x29C SWAP1 PUSH2 0x27C3 JUMP JUMPDEST PUSH1 0x1 PUSH1 0x1 PUSH1 0xA0 SHL SUB DUP1 DUP5 AND PUSH1 0x0 SWAP1 DUP2 MSTORE PUSH1 0xF PUSH1 0x20 SWAP1 DUP2 MSTORE PUSH1 0x40 DUP1 DUP4 KECCAK256 SWAP4 DUP7 AND DUP4 MSTORE SWAP3 SWAP1 MSTORE SWAP1 DUP2 KECCAK256 DUP1 SLOAD DUP4 SWAP3 SWAP1 PUSH2 0xD63 SWAP1 DUP5 SWAP1 PUSH2 0x2824 JUMP JUMPDEST SWAP1 SWAP2 SSTORE POP POP PUSH1 0x1 PUSH1 0x1 PUSH1 0xA0 SHL SUB DUP4 AND PUSH1 0x0 SWAP1 DUP2 MSTORE PUSH1 0xE PUSH1 0x20 MSTORE PUSH1 0x40 DUP2 KECCAK256 DUP1 SLOAD DUP4 SWAP3 SWAP1 PUSH2 0xD90 SWAP1 DUP5 SWAP1 PUSH2 0x2824 JUMP JUMPDEST SWAP1 SWAP2 SSTORE POP PUSH2 0xDA1 SWAP1 POP DUP4 DUP4 DUP4 PUSH2 0x1B2F JUMP JUMPDEST PUSH1 0x40 DUP1 MLOAD PUSH1 0x1 PUSH1 0x1 PUSH1 0xA0 SHL SUB DUP5 DUP2 AND DUP3 MSTORE PUSH1 0x20 DUP3 ADD DUP5 SWAP1 MSTORE DUP6 AND SWAP2 PUSH32 0x3BE5B7A71E84ED12875D241991C70855AC5817D847039E17A9D895C1CEB0F18A SWAP2 ADD PUSH1 0x40 MLOAD DUP1 SWAP2 SUB SWAP1 LOG2 POP POP POP JUMP JUMPDEST ORIGIN CALLER EQ PUSH2 0xE3B JUMPI PUSH1 0x40 MLOAD PUSH3 0x461BCD PUSH1 0xE5 SHL DUP2 MSTORE PUSH1 0x20 PUSH1 0x4 DUP3 ADD MSTORE PUSH1 0x1E PUSH1 0x24 DUP3 ADD MSTORE PUSH32 0x5468652063616C6C657220697320616E6F7468657220636F6E74726163740000 PUSH1 0x44 DUP3 ADD MSTORE PUSH1 0x64 ADD PUSH2 0x29C JUMP JUMPDEST PUSH1 0x12 SLOAD DUP1 PUSH2 0xE78 JUMPI PUSH1 0x40 MLOAD PUSH3 0x461BCD PUSH1 0xE5 SHL DUP2 MSTORE PUSH1 0x20 PUSH1 0x4 DUP3 ADD MSTORE PUSH1 0xA PUSH1 0x24 DUP3 ADD MSTORE PUSH10 0x5072696365206973203 PUSH1 0xB4 SHL PUSH1 0x44 DUP3 ADD MSTORE PUSH1 0x64 ADD PUSH2 0x29C JUMP JUMPDEST PUSH1 0x15 SLOAD TIMESTAMP LT ISZERO PUSH2 0xED5 JUMPI PUSH1 0x40 MLOAD PUSH3 0x461BCD PUSH1 0xE5 SHL DUP2 MSTORE PUSH1 0x20 PUSH1 0x4 DUP3 ADD MSTORE PUSH1 0x22 PUSH1 0x24 DUP3 ADD MSTORE PUSH32 0x57686974656C6973742053616C6520686173206E6F7420737461727465642079 PUSH1 0x44 DUP3 ADD MSTORE PUSH2 0x195D PUSH1 0xF2 SHL PUSH1 0x64 DUP3 ADD MSTORE PUSH1 0x84 ADD PUSH2 0x29C JUMP JUMPDEST PUSH1 0x15 SLOAD PUSH2 0xEE4 SWAP1 PUSH2 0x4650 PUSH2 0x2824 JUMP JUMPDEST TIMESTAMP LT PUSH2 0xF32 JUMPI PUSH1 0x40 MLOAD PUSH3 0x461BCD PUSH1 0xE5 SHL DUP2 MSTORE PUSH1 0x20 PUSH1 0x4 DUP3 ADD MSTORE PUSH1 0x1A PUSH1 0x24 DUP3 ADD MSTORE PUSH32 0x57686974656C6973742053616C652069732066696E6973686564000000000000 PUSH1 0x44 DUP3 ADD MSTORE PUSH1 0x64 ADD PUSH2 0x29C JUMP JUMPDEST PUSH1 0x1 PUSH1 0x11 SLOAD PUSH1 0xFF AND PUSH1 0x4 DUP2 GT ISZERO PUSH2 0xF4B JUMPI PUSH2 0xF4B PUSH2 0x2704 JUMP JUMPDEST EQ PUSH2 0xF98 JUMPI PUSH1 0x40 MLOAD PUSH3 0x461BCD PUSH1 0xE5 SHL DUP2 MSTORE PUSH1 0x20 PUSH1 0x4 DUP3 ADD MSTORE PUSH1 0x1F PUSH1 0x24 DUP3 ADD MSTORE PUSH32 0x57686974656C6973742073616C65206973206E6F742061637469766174656400 PUSH1 0x44 DUP3 ADD MSTORE PUSH1 0x64 ADD PUSH2 0x29C JUMP JUMPDEST PUSH2 0xFA3 CALLER DUP5 DUP5 PUSH2 0x1B81 JUMP JUMPDEST PUSH2 0xFE1 JUMPI PUSH1 0x40 MLOAD PUSH3 0x461BCD PUSH1 0xE5 SHL DUP2 MSTORE PUSH1 0x20 PUSH1 0x4 DUP3 ADD MSTORE PUSH1 0xF PUSH1 0x24 DUP3 ADD MSTORE PUSH15 0x139BDD081DDA1A5D195B1A5CDD1959 PUSH1 0x8A SHL PUSH1 0x44 DUP3 ADD MSTORE PUSH1 0x64 ADD PUSH2 0x29C JUMP JUMPDEST CALLER PUSH1 0x0 SWAP1 DUP2 MSTORE PUSH1 0x16 PUSH1 0x20 MSTORE PUSH1 0x40 SWAP1 KECCAK256 SLOAD PUSH1 0x1 SWAP1 PUSH2 0xFFF SWAP1 DUP7 SWAP1 PUSH2 0x2824 JUMP JUMPDEST GT ISZERO PUSH2 0x1062 JUMPI PUSH1 0x40 MLOAD PUSH3 0x461BCD PUSH1 0xE5 SHL DUP2 MSTORE PUSH1 0x20 PUSH1 0x4 DUP3 ADD MSTORE PUSH1 0x2C PUSH1 0x24 DUP3 ADD MSTORE PUSH32 0x596F752063616E206F6E6C79206765742031204E4654206F6E20746865205768 PUSH1 0x44 DUP3 ADD MSTORE PUSH12 0x6974656C6973742053616C65 PUSH1 0xA0 SHL PUSH1 0x64 DUP3 ADD MSTORE PUSH1 0x84 ADD PUSH2 0x29C JUMP JUMPDEST PUSH2 0xAD9 DUP5 PUSH2 0x1073 PUSH1 0x2 SLOAD PUSH1 0x1 SLOAD SUB SWAP1 JUMP JUMPDEST PUSH2 0x107D SWAP2 SWAP1 PUSH2 0x2824 JUMP JUMPDEST GT ISZERO PUSH2 0x10C1 JUMPI PUSH1 0x40 MLOAD PUSH3 0x461BCD PUSH1 0xE5 SHL DUP2 MSTORE PUSH1 0x20 PUSH1 0x4 DUP3 ADD MSTORE PUSH1 0x13 PUSH1 0x24 DUP3 ADD MSTORE PUSH19 0x13585E081CDD5C1C1B1E48195E18D959591959 PUSH1 0x6A SHL PUSH1 0x44 DUP3 ADD MSTORE PUSH1 0x64 ADD PUSH2 0x29C JUMP JUMPDEST PUSH2 0x10CB DUP5 DUP3 PUSH2 0x283C JUMP JUMPDEST CALLVALUE LT ISZERO PUSH2 0x110E JUMPI PUSH1 0x40 MLOAD PUSH3 0x461BCD PUSH1 0xE5 SHL DUP2 MSTORE PUSH1 0x20 PUSH1 0x4 DUP3 ADD MSTORE PUSH1 0x11 PUSH1 0x24 DUP3 ADD MSTORE PUSH17 0x4E6F7420656E6F756768742066756E6473 PUSH1 0x78 SHL PUSH1 0x44 DUP3 ADD MSTORE PUSH1 0x64 ADD PUSH2 0x29C JUMP JUMPDEST CALLER PUSH1 0x0 SWAP1 DUP2 MSTORE PUSH1 0x16 PUSH1 0x20 MSTORE PUSH1 0x40 DUP2 KECCAK256 DUP1 SLOAD DUP7 SWAP3 SWAP1 PUSH2 0x112D SWAP1 DUP5 SWAP1 PUSH2 0x2824 JUMP JUMPDEST SWAP1 SWAP2 SSTORE POP PUSH2 0x113D SWAP1 POP DUP6 DUP6 PUSH2 0x1C02 JUMP JUMPDEST POP POP POP POP POP JUMP JUMPDEST PUSH1 0x0 SLOAD PUSH1 0x1 PUSH1 0x1 PUSH1 0xA0 SHL SUB AND CALLER EQ PUSH2 0x116E JUMPI PUSH1 0x40 MLOAD PUSH3 0x461BCD PUSH1 0xE5 SHL DUP2 MSTORE PUSH1 0x4 ADD PUSH2 0x29C SWAP1 PUSH2 0x285B JUMP JUMPDEST PUSH1 0x15 SSTORE JUMP JUMPDEST PUSH1 0x0 JUMPDEST PUSH1 0x17 SLOAD DUP2 LT ISZERO PUSH2 0x119E JUMPI PUSH2 0x118C PUSH2 0x399 DUP3 PUSH2 0x12EE JUMP JUMPDEST DUP1 PUSH2 0x1196 DUP2 PUSH2 0x2890 JUMP JUMPDEST SWAP2 POP POP PUSH2 0x1176 JUMP JUMPDEST POP JUMP JUMPDEST PUSH1 0x0 PUSH2 0x8A9 DUP3 PUSH2 0x1ACE JUMP JUMPDEST PUSH1 0x10 DUP1 SLOAD PUSH2 0x11B9 SWAP1 PUSH2 0x2742 JUMP JUMPDEST DUP1 PUSH1 0x1F ADD PUSH1 0x20 DUP1 SWAP2 DIV MUL PUSH1 0x20 ADD PUSH1 0x40 MLOAD SWAP1 DUP2 ADD PUSH1 0x40 MSTORE DUP1 SWAP3 SWAP2 SWAP1 DUP2 DUP2 MSTORE PUSH1 0x20 ADD DUP3 DUP1 SLOAD PUSH2 0x11E5 SWAP1 PUSH2 0x2742 JUMP JUMPDEST DUP1 ISZERO PUSH2 0x1232 JUMPI DUP1 PUSH1 0x1F LT PUSH2 0x1207 JUMPI PUSH2 0x100 DUP1 DUP4 SLOAD DIV MUL DUP4 MSTORE SWAP2 PUSH1 0x20 ADD SWAP2 PUSH2 0x1232 JUMP JUMPDEST DUP3 ADD SWAP2 SWAP1 PUSH1 0x0 MSTORE PUSH1 0x20 PUSH1 0x0 KECCAK256 SWAP1 JUMPDEST DUP2 SLOAD DUP2 MSTORE SWAP1 PUSH1 0x1 ADD SWAP1 PUSH1 0x20 ADD DUP1 DUP4 GT PUSH2 0x1215 JUMPI DUP3 SWAP1 SUB PUSH1 0x1F AND DUP3 ADD SWAP2 JUMPDEST POP POP POP POP POP DUP2 JUMP JUMPDEST PUSH1 0x0 PUSH1 0x1 PUSH1 0x1 PUSH1 0xA0 SHL SUB DUP3 AND PUSH2 0x1263 JUMPI PUSH1 0x40 MLOAD PUSH4 0x23D3AD81 PUSH1 0xE2 SHL DUP2 MSTORE PUSH1 0x4 ADD PUSH1 0x40 MLOAD DUP1 SWAP2 SUB SWAP1 REVERT JUMPDEST POP PUSH1 0x1 PUSH1 0x1 PUSH1 0xA0 SHL SUB AND PUSH1 0x0 SWAP1 DUP2 MSTORE PUSH1 0x6 PUSH1 0x20 MSTORE PUSH1 0x40 SWAP1 KECCAK256 SLOAD PUSH8 0xFFFFFFFFFFFFFFFF AND SWAP1 JUMP JUMPDEST PUSH1 0x0 SLOAD PUSH1 0x1 PUSH1 0x1 PUSH1 0xA0 SHL SUB AND CALLER EQ PUSH2 0x12B3 JUMPI PUSH1 0x40 MLOAD PUSH3 0x461BCD PUSH1 0xE5 SHL DUP2 MSTORE PUSH1 0x4 ADD PUSH2 0x29C SWAP1 PUSH2 0x285B JUMP JUMPDEST PUSH2 0x12BD PUSH1 0x0 PUSH2 0x1C1C JUMP JUMPDEST JUMP JUMPDEST PUSH1 0x0 SLOAD PUSH1 0x1 PUSH1 0x1 PUSH1 0xA0 SHL SUB AND CALLER EQ PUSH2 0x12E9 JUMPI PUSH1 0x40 MLOAD PUSH3 0x461BCD PUSH1 0xE5 SHL DUP2 MSTORE PUSH1 0x4 ADD PUSH2 0x29C SWAP1 PUSH2 0x285B JUMP JUMPDEST PUSH1 0x14 SSTORE JUMP JUMPDEST PUSH1 0x0 PUSH1 0xD DUP3 DUP2 SLOAD DUP2 LT PUSH2 0x1303 JUMPI PUSH2 0x1303 PUSH2 0x28AB JUMP JUMPDEST PUSH1 0x0 SWAP2 DUP3 MSTORE PUSH1 0x20 SWAP1 SWAP2 KECCAK256 ADD SLOAD PUSH1 0x1 PUSH1 0x1 PUSH1 0xA0 SHL SUB AND SWAP3 SWAP2 POP POP JUMP JUMPDEST PUSH1 0x60 PUSH1 0x4 DUP1 SLOAD PUSH2 0x8BE SWAP1 PUSH2 0x2742 JUMP JUMPDEST PUSH1 0x0 SLOAD PUSH1 0x1 PUSH1 0x1 PUSH1 0xA0 SHL SUB AND CALLER EQ PUSH2 0x1357 JUMPI PUSH1 0x40 MLOAD PUSH3 0x461BCD PUSH1 0xE5 SHL DUP2 MSTORE PUSH1 0x4 ADD PUSH2 0x29C SWAP1 PUSH2 0x285B JUMP JUMPDEST DUP1 MLOAD PUSH2 0x136A SWAP1 PUSH1 0x10 SWAP1 PUSH1 0x20 DUP5 ADD SWAP1 PUSH2 0x22BF JUMP JUMPDEST POP POP JUMP JUMPDEST PUSH1 0x1 PUSH1 0x1 PUSH1 0xA0 SHL SUB DUP3 AND CALLER EQ ISZERO PUSH2 0x1398 JUMPI PUSH1 0x40 MLOAD PUSH4 0xB06307DB PUSH1 0xE0 SHL DUP2 MSTORE PUSH1 0x4 ADD PUSH1 0x40 MLOAD DUP1 SWAP2 SUB SWAP1 REVERT JUMPDEST CALLER PUSH1 0x0 DUP2 DUP2 MSTORE PUSH1 0x8 PUSH1 0x20 SWAP1 DUP2 MSTORE PUSH1 0x40 DUP1 DUP4 KECCAK256 PUSH1 0x1 PUSH1 0x1 PUSH1 0xA0 SHL SUB DUP8 AND DUP1 DUP6 MSTORE SWAP1 DUP4 MSTORE SWAP3 DUP2 SWAP1 KECCAK256 DUP1 SLOAD PUSH1 0xFF NOT AND DUP7 ISZERO ISZERO SWAP1 DUP2 OR SWAP1 SWAP2 SSTORE SWAP1 MLOAD SWAP1 DUP2 MSTORE SWAP2 SWAP3 SWAP2 PUSH32 0x17307EAB39AB6107E8899845AD3D59BD9653F200F220920489CA2B5937696C31 SWAP2 ADD PUSH1 0x40 MLOAD DUP1 SWAP2 SUB SWAP1 LOG3 POP POP JUMP JUMPDEST PUSH1 0x0 DUP1 PUSH2 0x1410 PUSH1 0xA SLOAD SWAP1 JUMP JUMPDEST PUSH2 0x141A SWAP1 SELFBALANCE PUSH2 0x2824 JUMP JUMPDEST SWAP1 POP PUSH2 0x1445 DUP4 DUP3 PUSH2 0x1440 DUP7 PUSH1 0x1 PUSH1 0x1 PUSH1 0xA0 SHL SUB AND PUSH1 0x0 SWAP1 DUP2 MSTORE PUSH1 0xC PUSH1 0x20 MSTORE PUSH1 0x40 SWAP1 KECCAK256 SLOAD SWAP1 JUMP JUMPDEST PUSH2 0x1C6C JUMP JUMPDEST SWAP4 SWAP3 POP POP POP JUMP JUMPDEST ORIGIN CALLER EQ PUSH2 0x149B JUMPI PUSH1 0x40 MLOAD PUSH3 0x461BCD PUSH1 0xE5 SHL DUP2 MSTORE PUSH1 0x20 PUSH1 0x4 DUP3 ADD MSTORE PUSH1 0x1E PUSH1 0x24 DUP3 ADD MSTORE PUSH32 0x5468652063616C6C657220697320616E6F7468657220636F6E74726163740000 PUSH1 0x44 DUP3 ADD MSTORE PUSH1 0x64 ADD PUSH2 0x29C JUMP JUMPDEST PUSH1 0x13 SLOAD DUP1 PUSH2 0x14D8 JUMPI PUSH1 0x40 MLOAD PUSH3 0x461BCD PUSH1 0xE5 SHL DUP2 MSTORE PUSH1 0x20 PUSH1 0x4 DUP3 ADD MSTORE PUSH1 0xA PUSH1 0x24 DUP3 ADD MSTORE PUSH10 0x5072696365206973203 PUSH1 0xB4 SHL PUSH1 0x44 DUP3 ADD MSTORE PUSH1 0x64 ADD PUSH2 0x29C JUMP JUMPDEST PUSH1 0x2 PUSH1 0x11 SLOAD PUSH1 0xFF AND PUSH1 0x4 DUP2 GT ISZERO PUSH2 0x14F1 JUMPI PUSH2 0x14F1 PUSH2 0x2704 JUMP JUMPDEST EQ PUSH2 0x153E JUMPI PUSH1 0x40 MLOAD PUSH3 0x461BCD PUSH1 0xE5 SHL DUP2 MSTORE PUSH1 0x20 PUSH1 0x4 DUP3 ADD MSTORE PUSH1 0x1C PUSH1 0x24 DUP3 ADD MSTORE PUSH32 0x5075626C69632073616C65206973206E6F742061637469766174656400000000 PUSH1 0x44 DUP3 ADD MSTORE PUSH1 0x64 ADD PUSH2 0x29C JUMP JUMPDEST PUSH2 0x154C PUSH2 0x1324 PUSH2 0xAD9 PUSH2 0x2824 JUMP JUMPDEST DUP3 PUSH2 0x155A PUSH1 0x2 SLOAD PUSH1 0x1 SLOAD SUB SWAP1 JUMP JUMPDEST PUSH2 0x1564 SWAP2 SWAP1 PUSH2 0x2824 JUMP JUMPDEST GT ISZERO PUSH2 0x15A8 JUMPI PUSH1 0x40 MLOAD PUSH3 0x461BCD PUSH1 0xE5 SHL DUP2 MSTORE PUSH1 0x20 PUSH1 0x4 DUP3 ADD MSTORE PUSH1 0x13 PUSH1 0x24 DUP3 ADD MSTORE PUSH19 0x13585E081CDD5C1C1B1E48195E18D959591959 PUSH1 0x6A SHL PUSH1 0x44 DUP3 ADD MSTORE PUSH1 0x64 ADD PUSH2 0x29C JUMP JUMPDEST PUSH2 0x15B2 DUP3 DUP3 PUSH2 0x283C JUMP JUMPDEST CALLVALUE LT ISZERO PUSH2 0x15F5 JUMPI PUSH1 0x40 MLOAD PUSH3 0x461BCD PUSH1 0xE5 SHL DUP2 MSTORE PUSH1 0x20 PUSH1 0x4 DUP3 ADD MSTORE PUSH1 0x11 PUSH1 0x24 DUP3 ADD MSTORE PUSH17 0x4E6F7420656E6F756768742066756E6473 PUSH1 0x78 SHL PUSH1 0x44 DUP3 ADD MSTORE PUSH1 0x64 ADD PUSH2 0x29C JUMP JUMPDEST PUSH2 0xCC7 DUP4 DUP4 PUSH2 0x1C02 JUMP JUMPDEST PUSH2 0x160A DUP5 DUP5 DUP5 PUSH2 0xB1B JUMP JUMPDEST PUSH1 0x1 PUSH1 0x1 PUSH1 0xA0 SHL SUB DUP4 AND EXTCODESIZE ISZERO PUSH2 0x1643 JUMPI PUSH2 0x1626 DUP5 DUP5 DUP5 DUP5 PUSH2 0x1CAA JUMP JUMPDEST PUSH2 0x1643 JUMPI PUSH1 0x40 MLOAD PUSH4 0x68D2BF6B PUSH1 0xE1 SHL DUP2 MSTORE PUSH1 0x4 ADD PUSH1 0x40 MLOAD DUP1 SWAP2 SUB SWAP1 REVERT JUMPDEST POP POP POP POP JUMP JUMPDEST PUSH1 0x1 PUSH1 0x1 PUSH1 0xA0 SHL SUB DUP3 AND PUSH1 0x0 SWAP1 DUP2 MSTORE PUSH1 0xE PUSH1 0x20 MSTORE PUSH1 0x40 DUP2 KECCAK256 SLOAD DUP2 SWAP1 PUSH1 0x40 MLOAD PUSH4 0x70A08231 PUSH1 0xE0 SHL DUP2 MSTORE ADDRESS PUSH1 0x4 DUP3 ADD MSTORE PUSH1 0x1 PUSH1 0x1 PUSH1 0xA0 SHL SUB DUP7 AND SWAP1 PUSH4 0x70A08231 SWAP1 PUSH1 0x24 ADD PUSH1 0x20 PUSH1 0x40 MLOAD DUP1 DUP4 SUB DUP2 DUP7 GAS STATICCALL ISZERO DUP1 ISZERO PUSH2 0x16A8 JUMPI RETURNDATASIZE PUSH1 0x0 DUP1 RETURNDATACOPY RETURNDATASIZE PUSH1 0x0 REVERT JUMPDEST POP POP POP POP PUSH1 0x40 MLOAD RETURNDATASIZE PUSH1 0x1F NOT PUSH1 0x1F DUP3 ADD AND DUP3 ADD DUP1 PUSH1 0x40 MSTORE POP DUP2 ADD SWAP1 PUSH2 0x16CC SWAP2 SWAP1 PUSH2 0x28C1 JUMP JUMPDEST PUSH2 0x16D6 SWAP2 SWAP1 PUSH2 0x2824 JUMP JUMPDEST PUSH1 0x1 PUSH1 0x1 PUSH1 0xA0 SHL SUB DUP1 DUP7 AND PUSH1 0x0 SWAP1 DUP2 MSTORE PUSH1 0xF PUSH1 0x20 SWAP1 DUP2 MSTORE PUSH1 0x40 DUP1 DUP4 KECCAK256 SWAP4 DUP9 AND DUP4 MSTORE SWAP3 SWAP1 MSTORE KECCAK256 SLOAD SWAP1 SWAP2 POP PUSH2 0x170C SWAP1 DUP5 SWAP1 DUP4 SWAP1 PUSH2 0x1C6C JUMP JUMPDEST SWAP5 SWAP4 POP POP POP POP JUMP JUMPDEST PUSH1 0x60 PUSH2 0x171F DUP3 PUSH2 0x198D JUMP JUMPDEST PUSH2 0x176B JUMPI PUSH1 0x40 MLOAD PUSH3 0x461BCD PUSH1 0xE5 SHL DUP2 MSTORE PUSH1 0x20 PUSH1 0x4 DUP3 ADD MSTORE PUSH1 0x1F PUSH1 0x24 DUP3 ADD MSTORE PUSH32 0x55524920717565727920666F72206E6F6E6578697374656E7420746F6B656E00 PUSH1 0x44 DUP3 ADD MSTORE PUSH1 0x64 ADD PUSH2 0x29C JUMP JUMPDEST PUSH1 0x10 PUSH2 0x1776 DUP4 PUSH2 0x1D92 JUMP JUMPDEST PUSH1 0x40 MLOAD PUSH1 0x20 ADD PUSH2 0x1787 SWAP3 SWAP2 SWAP1 PUSH2 0x28F6 JUMP JUMPDEST PUSH1 0x40 MLOAD PUSH1 0x20 DUP2 DUP4 SUB SUB DUP2 MSTORE SWAP1 PUSH1 0x40 MSTORE SWAP1 POP SWAP2 SWAP1 POP JUMP JUMPDEST PUSH1 0x0 SLOAD PUSH1 0x1 PUSH1 0x1 PUSH1 0xA0 SHL SUB AND CALLER EQ PUSH2 0x17C7 JUMPI PUSH1 0x40 MLOAD PUSH3 0x461BCD PUSH1 0xE5 SHL DUP2 MSTORE PUSH1 0x4 ADD PUSH2 0x29C SWAP1 PUSH2 0x285B JUMP JUMPDEST PUSH1 0x2 PUSH1 0x11 SLOAD PUSH1 0xFF AND PUSH1 0x4 DUP2 GT ISZERO PUSH2 0x17E0 JUMPI PUSH2 0x17E0 PUSH2 0x2704 JUMP JUMPDEST GT PUSH2 0x182D JUMPI PUSH1 0x40 MLOAD PUSH3 0x461BCD PUSH1 0xE5 SHL DUP2 MSTORE PUSH1 0x20 PUSH1 0x4 DUP3 ADD MSTORE PUSH1 0x1D PUSH1 0x24 DUP3 ADD MSTORE PUSH32 0x4769667420697320616674657220746865207075626C69632073616C65000000 PUSH1 0x44 DUP3 ADD MSTORE PUSH1 0x64 ADD PUSH2 0x29C JUMP JUMPDEST PUSH2 0x1E61 DUP2 PUSH2 0x183E PUSH1 0x2 SLOAD PUSH1 0x1 SLOAD SUB SWAP1 JUMP JUMPDEST PUSH2 0x1848 SWAP2 SWAP1 PUSH2 0x2824 JUMP JUMPDEST GT ISZERO PUSH2 0x188B JUMPI PUSH1 0x40 MLOAD PUSH3 0x461BCD PUSH1 0xE5 SHL DUP2 MSTORE PUSH1 0x20 PUSH1 0x4 DUP3 ADD MSTORE PUSH1 0x12 PUSH1 0x24 DUP3 ADD MSTORE PUSH18 0x52656163686564206D617820537570706C79 PUSH1 0x70 SHL PUSH1 0x44 DUP3 ADD MSTORE PUSH1 0x64 ADD PUSH2 0x29C JUMP JUMPDEST PUSH2 0x136A DUP3 DUP3 PUSH2 0x1C02 JUMP JUMPDEST PUSH1 0x0 SLOAD PUSH1 0x1 PUSH1 0x1 PUSH1 0xA0 SHL SUB AND CALLER EQ PUSH2 0x18BF JUMPI PUSH1 0x40 MLOAD PUSH3 0x461BCD PUSH1 0xE5 SHL DUP2 MSTORE PUSH1 0x4 ADD PUSH2 0x29C SWAP1 PUSH2 0x285B JUMP JUMPDEST PUSH1 0x1 PUSH1 0x1 PUSH1 0xA0 SHL SUB DUP2 AND PUSH2 0x1924 JUMPI PUSH1 0x40 MLOAD PUSH3 0x461BCD PUSH1 0xE5 SHL DUP2 MSTORE PUSH1 0x20 PUSH1 0x4 DUP3 ADD MSTORE PUSH1 0x26 PUSH1 0x24 DUP3 ADD MSTORE PUSH32 0x4F776E61626C653A206E6577206F776E657220697320746865207A65726F2061 PUSH1 0x44 DUP3 ADD MSTORE PUSH6 0x646472657373 PUSH1 0xD0 SHL PUSH1 0x64 DUP3 ADD MSTORE PUSH1 0x84 ADD PUSH2 0x29C JUMP JUMPDEST PUSH2 0x119E DUP2 PUSH2 0x1C1C JUMP JUMPDEST PUSH1 0x0 SLOAD PUSH1 0x1 PUSH1 0x1 PUSH1 0xA0 SHL SUB AND CALLER EQ PUSH2 0x1957 JUMPI PUSH1 0x40 MLOAD PUSH3 0x461BCD PUSH1 0xE5 SHL DUP2 MSTORE PUSH1 0x4 ADD PUSH2 0x29C SWAP1 PUSH2 0x285B JUMP JUMPDEST DUP1 PUSH1 0x4 DUP2 GT ISZERO PUSH2 0x1969 JUMPI PUSH2 0x1969 PUSH2 0x2704 JUMP JUMPDEST PUSH1 0x11 DUP1 SLOAD PUSH1 0xFF NOT AND PUSH1 0x1 DUP4 PUSH1 0x4 DUP2 GT ISZERO PUSH2 0x1985 JUMPI PUSH2 0x1985 PUSH2 0x2704 JUMP JUMPDEST MUL OR SWAP1 SSTORE POP POP JUMP JUMPDEST PUSH1 0x0 PUSH1 0x1 SLOAD DUP3 LT DUP1 ISZERO PUSH2 0x8A9 JUMPI POP POP PUSH1 0x0 SWAP1 DUP2 MSTORE PUSH1 0x5 PUSH1 0x20 MSTORE PUSH1 0x40 SWAP1 KECCAK256 SLOAD PUSH1 0x1 PUSH1 0xE0 SHL AND ISZERO SWAP1 JUMP JUMPDEST DUP1 SELFBALANCE LT ISZERO PUSH2 0x1A05 JUMPI PUSH1 0x40 MLOAD PUSH3 0x461BCD PUSH1 0xE5 SHL DUP2 MSTORE PUSH1 0x20 PUSH1 0x4 DUP3 ADD MSTORE PUSH1 0x1D PUSH1 0x24 DUP3 ADD MSTORE PUSH32 0x416464726573733A20696E73756666696369656E742062616C616E6365000000 PUSH1 0x44 DUP3 ADD MSTORE PUSH1 0x64 ADD PUSH2 0x29C JUMP JUMPDEST PUSH1 0x0 DUP3 PUSH1 0x1 PUSH1 0x1 PUSH1 0xA0 SHL SUB AND DUP3 PUSH1 0x40 MLOAD PUSH1 0x0 PUSH1 0x40 MLOAD DUP1 DUP4 SUB DUP2 DUP6 DUP8 GAS CALL SWAP3 POP POP POP RETURNDATASIZE DUP1 PUSH1 0x0 DUP2 EQ PUSH2 0x1A52 JUMPI PUSH1 0x40 MLOAD SWAP2 POP PUSH1 0x1F NOT PUSH1 0x3F RETURNDATASIZE ADD AND DUP3 ADD PUSH1 0x40 MSTORE RETURNDATASIZE DUP3 MSTORE RETURNDATASIZE PUSH1 0x0 PUSH1 0x20 DUP5 ADD RETURNDATACOPY PUSH2 0x1A57 JUMP JUMPDEST PUSH1 0x60 SWAP2 POP JUMPDEST POP POP SWAP1 POP DUP1 PUSH2 0xCC7 JUMPI PUSH1 0x40 MLOAD PUSH3 0x461BCD PUSH1 0xE5 SHL DUP2 MSTORE PUSH1 0x20 PUSH1 0x4 DUP3 ADD MSTORE PUSH1 0x3A PUSH1 0x24 DUP3 ADD MSTORE PUSH32 0x416464726573733A20756E61626C6520746F2073656E642076616C75652C2072 PUSH1 0x44 DUP3 ADD MSTORE PUSH32 0x6563697069656E74206D61792068617665207265766572746564000000000000 PUSH1 0x64 DUP3 ADD MSTORE PUSH1 0x84 ADD PUSH2 0x29C JUMP JUMPDEST PUSH1 0x0 DUP2 PUSH1 0x1 SLOAD DUP2 LT ISZERO PUSH2 0x1B16 JUMPI PUSH1 0x0 DUP2 DUP2 MSTORE PUSH1 0x5 PUSH1 0x20 MSTORE PUSH1 0x40 SWAP1 KECCAK256 SLOAD PUSH1 0x1 PUSH1 0xE0 SHL DUP2 AND PUSH2 0x1B14 JUMPI JUMPDEST DUP1 PUSH2 0x1445 JUMPI POP PUSH1 0x0 NOT ADD PUSH1 0x0 DUP2 DUP2 MSTORE PUSH1 0x5 PUSH1 0x20 MSTORE PUSH1 0x40 SWAP1 KECCAK256 SLOAD PUSH2 0x1AF6 JUMP JUMPDEST POP JUMPDEST PUSH1 0x40 MLOAD PUSH4 0x6F96CDA1 PUSH1 0xE1 SHL DUP2 MSTORE PUSH1 0x4 ADD PUSH1 0x40 MLOAD DUP1 SWAP2 SUB SWAP1 REVERT JUMPDEST PUSH1 0x40 DUP1 MLOAD PUSH1 0x1 PUSH1 0x1 PUSH1 0xA0 SHL SUB DUP5 AND PUSH1 0x24 DUP3 ADD MSTORE PUSH1 0x44 DUP1 DUP3 ADD DUP5 SWAP1 MSTORE DUP3 MLOAD DUP1 DUP4 SUB SWAP1 SWAP2 ADD DUP2 MSTORE PUSH1 0x64 SWAP1 SWAP2 ADD SWAP1 SWAP2 MSTORE PUSH1 0x20 DUP2 ADD DUP1 MLOAD PUSH1 0x1 PUSH1 0x1 PUSH1 0xE0 SHL SUB AND PUSH4 0xA9059CBB PUSH1 0xE0 SHL OR SWAP1 MSTORE PUSH2 0xCC7 SWAP1 DUP5 SWAP1 PUSH2 0x1E90 JUMP JUMPDEST PUSH1 0x0 PUSH2 0x170C PUSH2 0x1BC9 DUP6 PUSH1 0x40 MLOAD PUSH12 0xFFFFFFFFFFFFFFFFFFFFFFFF NOT PUSH1 0x60 DUP4 SWAP1 SHL AND PUSH1 0x20 DUP3 ADD MSTORE PUSH1 0x0 SWAP1 PUSH1 0x34 ADD PUSH1 0x40 MLOAD PUSH1 0x20 DUP2 DUP4 SUB SUB DUP2 MSTORE SWAP1 PUSH1 0x40 MSTORE DUP1 MLOAD SWAP1 PUSH1 0x20 ADD KECCAK256 SWAP1 POP SWAP2 SWAP1 POP JUMP JUMPDEST DUP5 DUP5 DUP1 DUP1 PUSH1 0x20 MUL PUSH1 0x20 ADD PUSH1 0x40 MLOAD SWAP1 DUP2 ADD PUSH1 0x40 MSTORE DUP1 SWAP4 SWAP3 SWAP2 SWAP1 DUP2 DUP2 MSTORE PUSH1 0x20 ADD DUP4 DUP4 PUSH1 0x20 MUL DUP1 DUP3 DUP5 CALLDATACOPY PUSH1 0x0 SWAP3 ADD SWAP2 SWAP1 SWAP2 MSTORE POP PUSH2 0x1F62 SWAP3 POP POP POP JUMP JUMPDEST PUSH2 0x136A DUP3 DUP3 PUSH1 0x40 MLOAD DUP1 PUSH1 0x20 ADD PUSH1 0x40 MSTORE DUP1 PUSH1 0x0 DUP2 MSTORE POP PUSH2 0x1F71 JUMP JUMPDEST PUSH1 0x0 DUP1 SLOAD PUSH1 0x1 PUSH1 0x1 PUSH1 0xA0 SHL SUB DUP4 DUP2 AND PUSH1 0x1 PUSH1 0x1 PUSH1 0xA0 SHL SUB NOT DUP4 AND DUP2 OR DUP5 SSTORE PUSH1 0x40 MLOAD SWAP2 SWAP1 SWAP3 AND SWAP3 DUP4 SWAP2 PUSH32 0x8BE0079C531659141344CD1FD0A4F28419497F9722A3DAAFE3B4186F6B6457E0 SWAP2 SWAP1 LOG3 POP POP JUMP JUMPDEST PUSH1 0x9 SLOAD PUSH1 0x1 PUSH1 0x1 PUSH1 0xA0 SHL SUB DUP5 AND PUSH1 0x0 SWAP1 DUP2 MSTORE PUSH1 0xB PUSH1 0x20 MSTORE PUSH1 0x40 DUP2 KECCAK256 SLOAD SWAP1 SWAP2 DUP4 SWAP2 PUSH2 0x1C96 SWAP1 DUP7 PUSH2 0x283C JUMP JUMPDEST PUSH2 0x1CA0 SWAP2 SWAP1 PUSH2 0x29C7 JUMP JUMPDEST PUSH2 0x170C SWAP2 SWAP1 PUSH2 0x29DB JUMP JUMPDEST PUSH1 0x40 MLOAD PUSH4 0xA85BD01 PUSH1 0xE1 SHL DUP2 MSTORE PUSH1 0x0 SWAP1 PUSH1 0x1 PUSH1 0x1 PUSH1 0xA0 SHL SUB DUP6 AND SWAP1 PUSH4 0x150B7A02 SWAP1 PUSH2 0x1CDF SWAP1 CALLER SWAP1 DUP10 SWAP1 DUP9 SWAP1 DUP9 SWAP1 PUSH1 0x4 ADD PUSH2 0x29F2 JUMP JUMPDEST PUSH1 0x20 PUSH1 0x40 MLOAD DUP1 DUP4 SUB DUP2 PUSH1 0x0 DUP8 GAS CALL SWAP3 POP POP POP DUP1 ISZERO PUSH2 0x1D1A JUMPI POP PUSH1 0x40 DUP1 MLOAD PUSH1 0x1F RETURNDATASIZE SWAP1 DUP2 ADD PUSH1 0x1F NOT AND DUP3 ADD SWAP1 SWAP3 MSTORE PUSH2 0x1D17 SWAP2 DUP2 ADD SWAP1 PUSH2 0x2A2F JUMP JUMPDEST PUSH1 0x1 JUMPDEST PUSH2 0x1D75 JUMPI RETURNDATASIZE DUP1 DUP1 ISZERO PUSH2 0x1D48 JUMPI PUSH1 0x40 MLOAD SWAP2 POP PUSH1 0x1F NOT PUSH1 0x3F RETURNDATASIZE ADD AND DUP3 ADD PUSH1 0x40 MSTORE RETURNDATASIZE DUP3 MSTORE RETURNDATASIZE PUSH1 0x0 PUSH1 0x20 DUP5 ADD RETURNDATACOPY PUSH2 0x1D4D JUMP JUMPDEST PUSH1 0x60 SWAP2 POP JUMPDEST POP DUP1 MLOAD PUSH2 0x1D6D JUMPI PUSH1 0x40 MLOAD PUSH4 0x68D2BF6B PUSH1 0xE1 SHL DUP2 MSTORE PUSH1 0x4 ADD PUSH1 0x40 MLOAD DUP1 SWAP2 SUB SWAP1 REVERT JUMPDEST DUP1 MLOAD DUP2 PUSH1 0x20 ADD REVERT JUMPDEST PUSH1 0x1 PUSH1 0x1 PUSH1 0xE0 SHL SUB NOT AND PUSH4 0xA85BD01 PUSH1 0xE1 SHL EQ SWAP1 POP SWAP5 SWAP4 POP POP POP POP JUMP JUMPDEST PUSH1 0x60 DUP2 PUSH2 0x1DB6 JUMPI POP POP PUSH1 0x40 DUP1 MLOAD DUP1 DUP3 ADD SWAP1 SWAP2 MSTORE PUSH1 0x1 DUP2 MSTORE PUSH1 0x3 PUSH1 0xFC SHL PUSH1 0x20 DUP3 ADD MSTORE SWAP1 JUMP JUMPDEST DUP2 PUSH1 0x0 JUMPDEST DUP2 ISZERO PUSH2 0x1DE0 JUMPI DUP1 PUSH2 0x1DCA DUP2 PUSH2 0x2890 JUMP JUMPDEST SWAP2 POP PUSH2 0x1DD9 SWAP1 POP PUSH1 0xA DUP4 PUSH2 0x29C7 JUMP JUMPDEST SWAP2 POP PUSH2 0x1DBA JUMP JUMPDEST PUSH1 0x0 DUP2 PUSH8 0xFFFFFFFFFFFFFFFF DUP2 GT ISZERO PUSH2 0x1DFB JUMPI PUSH2 0x1DFB PUSH2 0x2573 JUMP JUMPDEST PUSH1 0x40 MLOAD SWAP1 DUP1 DUP3 MSTORE DUP1 PUSH1 0x1F ADD PUSH1 0x1F NOT AND PUSH1 0x20 ADD DUP3 ADD PUSH1 0x40 MSTORE DUP1 ISZERO PUSH2 0x1E25 JUMPI PUSH1 0x20 DUP3 ADD DUP2 DUP1 CALLDATASIZE DUP4 CALLDATACOPY ADD SWAP1 POP JUMPDEST POP SWAP1 POP JUMPDEST DUP5 ISZERO PUSH2 0x170C JUMPI PUSH2 0x1E3A PUSH1 0x1 DUP4 PUSH2 0x29DB JUMP JUMPDEST SWAP2 POP PUSH2 0x1E47 PUSH1 0xA DUP7 PUSH2 0x2A4C JUMP JUMPDEST PUSH2 0x1E52 SWAP1 PUSH1 0x30 PUSH2 0x2824 JUMP JUMPDEST PUSH1 0xF8 SHL DUP2 DUP4 DUP2 MLOAD DUP2 LT PUSH2 0x1E67 JUMPI PUSH2 0x1E67 PUSH2 0x28AB JUMP JUMPDEST PUSH1 0x20 ADD ADD SWAP1 PUSH1 0x1 PUSH1 0x1 PUSH1 0xF8 SHL SUB NOT AND SWAP1 DUP2 PUSH1 0x0 BYTE SWAP1 MSTORE8 POP PUSH2 0x1E89 PUSH1 0xA DUP7 PUSH2 0x29C7 JUMP JUMPDEST SWAP5 POP PUSH2 0x1E29 JUMP JUMPDEST PUSH1 0x0 PUSH2 0x1EE5 DUP3 PUSH1 0x40 MLOAD DUP1 PUSH1 0x40 ADD PUSH1 0x40 MSTORE DUP1 PUSH1 0x20 DUP2 MSTORE PUSH1 0x20 ADD PUSH32 0x5361666545524332303A206C6F772D6C6576656C2063616C6C206661696C6564 DUP2 MSTORE POP DUP6 PUSH1 0x1 PUSH1 0x1 PUSH1 0xA0 SHL SUB AND PUSH2 0x1FD7 SWAP1 SWAP3 SWAP2 SWAP1 PUSH4 0xFFFFFFFF AND JUMP JUMPDEST DUP1 MLOAD SWAP1 SWAP2 POP ISZERO PUSH2 0xCC7 JUMPI DUP1 DUP1 PUSH1 0x20 ADD SWAP1 MLOAD DUP2 ADD SWAP1 PUSH2 0x1F03 SWAP2 SWAP1 PUSH2 0x2A60 JUMP JUMPDEST PUSH2 0xCC7 JUMPI PUSH1 0x40 MLOAD PUSH3 0x461BCD PUSH1 0xE5 SHL DUP2 MSTORE PUSH1 0x20 PUSH1 0x4 DUP3 ADD MSTORE PUSH1 0x2A PUSH1 0x24 DUP3 ADD MSTORE PUSH32 0x5361666545524332303A204552433230206F7065726174696F6E20646964206E PUSH1 0x44 DUP3 ADD MSTORE PUSH10 0x1BDD081CDD58D8D95959 PUSH1 0xB2 SHL PUSH1 0x64 DUP3 ADD MSTORE PUSH1 0x84 ADD PUSH2 0x29C JUMP JUMPDEST PUSH1 0x0 PUSH2 0x1445 DUP3 PUSH1 0x14 SLOAD DUP6 PUSH2 0x1FE6 JUMP JUMPDEST PUSH2 0x1F7B DUP4 DUP4 PUSH2 0x1FFC JUMP JUMPDEST PUSH1 0x1 PUSH1 0x1 PUSH1 0xA0 SHL SUB DUP4 AND EXTCODESIZE ISZERO PUSH2 0xCC7 JUMPI PUSH1 0x1 SLOAD DUP3 DUP2 SUB JUMPDEST PUSH2 0x1FA5 PUSH1 0x0 DUP7 DUP4 DUP1 PUSH1 0x1 ADD SWAP5 POP DUP7 PUSH2 0x1CAA JUMP JUMPDEST PUSH2 0x1FC2 JUMPI PUSH1 0x40 MLOAD PUSH4 0x68D2BF6B PUSH1 0xE1 SHL DUP2 MSTORE PUSH1 0x4 ADD PUSH1 0x40 MLOAD DUP1 SWAP2 SUB SWAP1 REVERT JUMPDEST DUP2 DUP2 LT PUSH2 0x1F92 JUMPI DUP2 PUSH1 0x1 SLOAD EQ PUSH2 0x113D JUMPI PUSH1 0x0 DUP1 REVERT JUMPDEST PUSH1 0x60 PUSH2 0x170C DUP5 DUP5 PUSH1 0x0 DUP6 PUSH2 0x20D9 JUMP JUMPDEST PUSH1 0x0 DUP3 PUSH2 0x1FF3 DUP6 DUP5 PUSH2 0x220A JUMP JUMPDEST EQ SWAP5 SWAP4 POP POP POP POP JUMP JUMPDEST PUSH1 0x1 SLOAD PUSH1 0x1 PUSH1 0x1 PUSH1 0xA0 SHL SUB DUP4 AND PUSH2 0x2025 JUMPI PUSH1 0x40 MLOAD PUSH3 0x2E0763 PUSH1 0xE8 SHL DUP2 MSTORE PUSH1 0x4 ADD PUSH1 0x40 MLOAD DUP1 SWAP2 SUB SWAP1 REVERT JUMPDEST DUP2 PUSH2 0x2043 JUMPI PUSH1 0x40 MLOAD PUSH4 0xB562E8DD PUSH1 0xE0 SHL DUP2 MSTORE PUSH1 0x4 ADD PUSH1 0x40 MLOAD DUP1 SWAP2 SUB SWAP1 REVERT JUMPDEST PUSH1 0x1 PUSH1 0x1 PUSH1 0xA0 SHL SUB DUP4 AND PUSH1 0x0 DUP2 DUP2 MSTORE PUSH1 0x6 PUSH1 0x20 MSTORE PUSH1 0x40 SWAP1 KECCAK256 DUP1 SLOAD PUSH9 0x10000000000000001 DUP6 MUL ADD SWAP1 SSTORE TIMESTAMP PUSH1 0xA0 SHL PUSH1 0x1 DUP5 EQ PUSH1 0xE1 SHL OR OR PUSH1 0x0 DUP3 DUP2 MSTORE PUSH1 0x5 PUSH1 0x20 MSTORE PUSH1 0x40 SWAP1 KECCAK256 SSTORE DUP1 DUP3 DUP2 ADD JUMPDEST PUSH1 0x40 MLOAD PUSH1 0x1 DUP4 ADD SWAP3 SWAP1 PUSH1 0x1 PUSH1 0x1 PUSH1 0xA0 SHL SUB DUP8 AND SWAP1 PUSH1 0x0 SWAP1 PUSH32 0xDDF252AD1BE2C89B69C2B068FC378DAA952BA7F163C4A11628F55A4DF523B3EF SWAP1 DUP3 SWAP1 LOG4 DUP1 DUP3 LT PUSH2 0x208D JUMPI PUSH1 0x1 SSTORE POP POP POP POP JUMP JUMPDEST PUSH1 0x60 DUP3 SELFBALANCE LT ISZERO PUSH2 0x213A JUMPI PUSH1 0x40 MLOAD PUSH3 0x461BCD PUSH1 0xE5 SHL DUP2 MSTORE PUSH1 0x20 PUSH1 0x4 DUP3 ADD MSTORE PUSH1 0x26 PUSH1 0x24 DUP3 ADD MSTORE PUSH32 0x416464726573733A20696E73756666696369656E742062616C616E636520666F PUSH1 0x44 DUP3 ADD MSTORE PUSH6 0x1C8818D85B1B PUSH1 0xD2 SHL PUSH1 0x64 DUP3 ADD MSTORE PUSH1 0x84 ADD PUSH2 0x29C JUMP JUMPDEST PUSH1 0x1 PUSH1 0x1 PUSH1 0xA0 SHL SUB DUP6 AND EXTCODESIZE PUSH2 0x2191 JUMPI PUSH1 0x40 MLOAD PUSH3 0x461BCD PUSH1 0xE5 SHL DUP2 MSTORE PUSH1 0x20 PUSH1 0x4 DUP3 ADD MSTORE PUSH1 0x1D PUSH1 0x24 DUP3 ADD MSTORE PUSH32 0x416464726573733A2063616C6C20746F206E6F6E2D636F6E7472616374000000 PUSH1 0x44 DUP3 ADD MSTORE PUSH1 0x64 ADD PUSH2 0x29C JUMP JUMPDEST PUSH1 0x0 DUP1 DUP7 PUSH1 0x1 PUSH1 0x1 PUSH1 0xA0 SHL SUB AND DUP6 DUP8 PUSH1 0x40 MLOAD PUSH2 0x21AD SWAP2 SWAP1 PUSH2 0x2A7D JUMP JUMPDEST PUSH1 0x0 PUSH1 0x40 MLOAD DUP1 DUP4 SUB DUP2 DUP6 DUP8 GAS CALL SWAP3 POP POP POP RETURNDATASIZE DUP1 PUSH1 0x0 DUP2 EQ PUSH2 0x21EA JUMPI PUSH1 0x40 MLOAD SWAP2 POP PUSH1 0x1F NOT PUSH1 0x3F RETURNDATASIZE ADD AND DUP3 ADD PUSH1 0x40 MSTORE RETURNDATASIZE DUP3 MSTORE RETURNDATASIZE PUSH1 0x0 PUSH1 0x20 DUP5 ADD RETURNDATACOPY PUSH2 0x21EF JUMP JUMPDEST PUSH1 0x60 SWAP2 POP JUMPDEST POP SWAP2 POP SWAP2 POP PUSH2 0x21FF DUP3 DUP3 DUP7 PUSH2 0x2257 JUMP JUMPDEST SWAP8 SWAP7 POP POP POP POP POP POP POP JUMP JUMPDEST PUSH1 0x0 DUP2 DUP2 JUMPDEST DUP5 MLOAD DUP2 LT ISZERO PUSH2 0x224F JUMPI PUSH2 0x223B DUP3 DUP7 DUP4 DUP2 MLOAD DUP2 LT PUSH2 0x222E JUMPI PUSH2 0x222E PUSH2 0x28AB JUMP JUMPDEST PUSH1 0x20 MUL PUSH1 0x20 ADD ADD MLOAD PUSH2 0x2290 JUMP JUMPDEST SWAP2 POP DUP1 PUSH2 0x2247 DUP2 PUSH2 0x2890 JUMP JUMPDEST SWAP2 POP POP PUSH2 0x220F JUMP JUMPDEST POP SWAP4 SWAP3 POP POP POP JUMP JUMPDEST PUSH1 0x60 DUP4 ISZERO PUSH2 0x2266 JUMPI POP DUP2 PUSH2 0x1445 JUMP JUMPDEST DUP3 MLOAD ISZERO PUSH2 0x2276 JUMPI DUP3 MLOAD DUP1 DUP5 PUSH1 0x20 ADD REVERT JUMPDEST DUP2 PUSH1 0x40 MLOAD PUSH3 0x461BCD PUSH1 0xE5 SHL DUP2 MSTORE PUSH1 0x4 ADD PUSH2 0x29C SWAP2 SWAP1 PUSH2 0x23E3 JUMP JUMPDEST PUSH1 0x0 DUP2 DUP4 LT PUSH2 0x22AC JUMPI PUSH1 0x0 DUP3 DUP2 MSTORE PUSH1 0x20 DUP5 SWAP1 MSTORE PUSH1 0x40 SWAP1 KECCAK256 PUSH2 0x1445 JUMP JUMPDEST PUSH1 0x0 DUP4 DUP2 MSTORE PUSH1 0x20 DUP4 SWAP1 MSTORE PUSH1 0x40 SWAP1 KECCAK256 PUSH2 0x1445 JUMP JUMPDEST DUP3 DUP1 SLOAD PUSH2 0x22CB SWAP1 PUSH2 0x2742 JUMP JUMPDEST SWAP1 PUSH1 0x0 MSTORE PUSH1 0x20 PUSH1 0x0 KECCAK256 SWAP1 PUSH1 0x1F ADD PUSH1 0x20 SWAP1 DIV DUP2 ADD SWAP3 DUP3 PUSH2 0x22ED JUMPI PUSH1 0x0 DUP6 SSTORE PUSH2 0x2333 JUMP JUMPDEST DUP3 PUSH1 0x1F LT PUSH2 0x2306 JUMPI DUP1 MLOAD PUSH1 0xFF NOT AND DUP4 DUP1 ADD OR DUP6 SSTORE PUSH2 0x2333 JUMP JUMPDEST DUP3 DUP1 ADD PUSH1 0x1 ADD DUP6 SSTORE DUP3 ISZERO PUSH2 0x2333 JUMPI SWAP2 DUP3 ADD JUMPDEST DUP3 DUP2 GT ISZERO PUSH2 0x2333 JUMPI DUP3 MLOAD DUP3 SSTORE SWAP2 PUSH1 0x20 ADD SWAP2 SWAP1 PUSH1 0x1 ADD SWAP1 PUSH2 0x2318 JUMP JUMPDEST POP PUSH2 0x233F SWAP3 SWAP2 POP PUSH2 0x2343 JUMP JUMPDEST POP SWAP1 JUMP JUMPDEST JUMPDEST DUP1 DUP3 GT ISZERO PUSH2 0x233F JUMPI PUSH1 0x0 DUP2 SSTORE PUSH1 0x1 ADD PUSH2 0x2344 JUMP JUMPDEST PUSH1 0x1 PUSH1 0x1 PUSH1 0xE0 SHL SUB NOT DUP2 AND DUP2 EQ PUSH2 0x119E JUMPI PUSH1 0x0 DUP1 REVERT JUMPDEST PUSH1 0x0 PUSH1 0x20 DUP3 DUP5 SUB SLT ISZERO PUSH2 0x2380 JUMPI PUSH1 0x0 DUP1 REVERT JUMPDEST DUP2 CALLDATALOAD PUSH2 0x1445 DUP2 PUSH2 0x2358 JUMP JUMPDEST PUSH1 0x0 JUMPDEST DUP4 DUP2 LT ISZERO PUSH2 0x23A6 JUMPI DUP2 DUP2 ADD MLOAD DUP4 DUP3 ADD MSTORE PUSH1 0x20 ADD PUSH2 0x238E JUMP JUMPDEST DUP4 DUP2 GT ISZERO PUSH2 0x1643 JUMPI POP POP PUSH1 0x0 SWAP2 ADD MSTORE JUMP JUMPDEST PUSH1 0x0 DUP2 MLOAD DUP1 DUP5 MSTORE PUSH2 0x23CF DUP2 PUSH1 0x20 DUP7 ADD PUSH1 0x20 DUP7 ADD PUSH2 0x238B JUMP JUMPDEST PUSH1 0x1F ADD PUSH1 0x1F NOT AND SWAP3 SWAP1 SWAP3 ADD PUSH1 0x20 ADD SWAP3 SWAP2 POP POP JUMP JUMPDEST PUSH1 0x20 DUP2 MSTORE PUSH1 0x0 PUSH2 0x1445 PUSH1 0x20 DUP4 ADD DUP5 PUSH2 0x23B7 JUMP JUMPDEST PUSH1 0x0 PUSH1 0x20 DUP3 DUP5 SUB SLT ISZERO PUSH2 0x2408 JUMPI PUSH1 0x0 DUP1 REVERT JUMPDEST POP CALLDATALOAD SWAP2 SWAP1 POP JUMP JUMPDEST PUSH1 0x1 PUSH1 0x1 PUSH1 0xA0 SHL SUB DUP2 AND DUP2 EQ PUSH2 0x119E JUMPI PUSH1 0x0 DUP1 REVERT JUMPDEST PUSH1 0x0 DUP1 PUSH1 0x40 DUP4 DUP6 SUB SLT ISZERO PUSH2 0x2437 JUMPI PUSH1 0x0 DUP1 REVERT JUMPDEST DUP3 CALLDATALOAD PUSH2 0x2442 DUP2 PUSH2 0x240F JUMP JUMPDEST SWAP5 PUSH1 0x20 SWAP4 SWAP1 SWAP4 ADD CALLDATALOAD SWAP4 POP POP POP JUMP JUMPDEST PUSH1 0x0 PUSH1 0x20 DUP3 DUP5 SUB SLT ISZERO PUSH2 0x2462 JUMPI PUSH1 0x0 DUP1 REVERT JUMPDEST DUP2 CALLDATALOAD PUSH2 0x1445 DUP2 PUSH2 0x240F JUMP JUMPDEST PUSH1 0x0 DUP1 PUSH1 0x0 PUSH1 0x60 DUP5 DUP7 SUB SLT ISZERO PUSH2 0x2482 JUMPI PUSH1 0x0 DUP1 REVERT JUMPDEST DUP4 CALLDATALOAD PUSH2 0x248D DUP2 PUSH2 0x240F JUMP JUMPDEST SWAP3 POP PUSH1 0x20 DUP5 ADD CALLDATALOAD PUSH2 0x249D DUP2 PUSH2 0x240F JUMP JUMPDEST SWAP3 SWAP6 SWAP3 SWAP5 POP POP POP PUSH1 0x40 SWAP2 SWAP1 SWAP2 ADD CALLDATALOAD SWAP1 JUMP JUMPDEST PUSH1 0x0 DUP1 PUSH1 0x40 DUP4 DUP6 SUB SLT ISZERO PUSH2 0x24C1 JUMPI PUSH1 0x0 DUP1 REVERT JUMPDEST DUP3 CALLDATALOAD PUSH2 0x24CC DUP2 PUSH2 0x240F JUMP JUMPDEST SWAP2 POP PUSH1 0x20 DUP4 ADD CALLDATALOAD PUSH2 0x24DC DUP2 PUSH2 0x240F JUMP JUMPDEST DUP1 SWAP2 POP POP SWAP3 POP SWAP3 SWAP1 POP JUMP JUMPDEST PUSH1 0x0 DUP1 PUSH1 0x0 DUP1 PUSH1 0x60 DUP6 DUP8 SUB SLT ISZERO PUSH2 0x24FD JUMPI PUSH1 0x0 DUP1 REVERT JUMPDEST DUP5 CALLDATALOAD PUSH2 0x2508 DUP2 PUSH2 0x240F JUMP JUMPDEST SWAP4 POP PUSH1 0x20 DUP6 ADD CALLDATALOAD SWAP3 POP PUSH1 0x40 DUP6 ADD CALLDATALOAD PUSH8 0xFFFFFFFFFFFFFFFF DUP1 DUP3 GT ISZERO PUSH2 0x252C JUMPI PUSH1 0x0 DUP1 REVERT JUMPDEST DUP2 DUP8 ADD SWAP2 POP DUP8 PUSH1 0x1F DUP4 ADD SLT PUSH2 0x2540 JUMPI PUSH1 0x0 DUP1 REVERT JUMPDEST DUP2 CALLDATALOAD DUP2 DUP2 GT ISZERO PUSH2 0x254F JUMPI PUSH1 0x0 DUP1 REVERT JUMPDEST DUP9 PUSH1 0x20 DUP3 PUSH1 0x5 SHL DUP6 ADD ADD GT ISZERO PUSH2 0x2564 JUMPI PUSH1 0x0 DUP1 REVERT JUMPDEST SWAP6 SWAP9 SWAP5 SWAP8 POP POP PUSH1 0x20 ADD SWAP5 POP POP POP JUMP JUMPDEST PUSH4 0x4E487B71 PUSH1 0xE0 SHL PUSH1 0x0 MSTORE PUSH1 0x41 PUSH1 0x4 MSTORE PUSH1 0x24 PUSH1 0x0 REVERT JUMPDEST PUSH1 0x0 PUSH8 0xFFFFFFFFFFFFFFFF DUP1 DUP5 GT ISZERO PUSH2 0x25A4 JUMPI PUSH2 0x25A4 PUSH2 0x2573 JUMP JUMPDEST PUSH1 0x40 MLOAD PUSH1 0x1F DUP6 ADD PUSH1 0x1F NOT SWAP1 DUP2 AND PUSH1 0x3F ADD AND DUP2 ADD SWAP1 DUP3 DUP3 GT DUP2 DUP4 LT OR ISZERO PUSH2 0x25CC JUMPI PUSH2 0x25CC PUSH2 0x2573 JUMP JUMPDEST DUP2 PUSH1 0x40 MSTORE DUP1 SWAP4 POP DUP6 DUP2 MSTORE DUP7 DUP7 DUP7 ADD GT ISZERO PUSH2 0x25E5 JUMPI PUSH1 0x0 DUP1 REVERT JUMPDEST DUP6 DUP6 PUSH1 0x20 DUP4 ADD CALLDATACOPY PUSH1 0x0 PUSH1 0x20 DUP8 DUP4 ADD ADD MSTORE POP POP POP SWAP4 SWAP3 POP POP POP JUMP JUMPDEST PUSH1 0x0 PUSH1 0x20 DUP3 DUP5 SUB SLT ISZERO PUSH2 0x2611 JUMPI PUSH1 0x0 DUP1 REVERT JUMPDEST DUP2 CALLDATALOAD PUSH8 0xFFFFFFFFFFFFFFFF DUP2 GT ISZERO PUSH2 0x2628 JUMPI PUSH1 0x0 DUP1 REVERT JUMPDEST DUP3 ADD PUSH1 0x1F DUP2 ADD DUP5 SGT PUSH2 0x2639 JUMPI PUSH1 0x0 DUP1 REVERT JUMPDEST PUSH2 0x170C DUP5 DUP3 CALLDATALOAD PUSH1 0x20 DUP5 ADD PUSH2 0x2589 JUMP JUMPDEST DUP1 ISZERO ISZERO DUP2 EQ PUSH2 0x119E JUMPI PUSH1 0x0 DUP1 REVERT JUMPDEST PUSH1 0x0 DUP1 PUSH1 0x40 DUP4 DUP6 SUB SLT ISZERO PUSH2 0x2669 JUMPI PUSH1 0x0 DUP1 REVERT JUMPDEST DUP3 CALLDATALOAD PUSH2 0x2674 DUP2 PUSH2 0x240F JUMP JUMPDEST SWAP2 POP PUSH1 0x20 DUP4 ADD CALLDATALOAD PUSH2 0x24DC DUP2 PUSH2 0x2648 JUMP JUMPDEST PUSH1 0x0 DUP1 PUSH1 0x0 DUP1 PUSH1 0x80 DUP6 DUP8 SUB SLT ISZERO PUSH2 0x269A JUMPI PUSH1 0x0 DUP1 REVERT JUMPDEST DUP5 CALLDATALOAD PUSH2 0x26A5 DUP2 PUSH2 0x240F JUMP JUMPDEST SWAP4 POP PUSH1 0x20 DUP6 ADD CALLDATALOAD PUSH2 0x26B5 DUP2 PUSH2 0x240F JUMP JUMPDEST SWAP3 POP PUSH1 0x40 DUP6 ADD CALLDATALOAD SWAP2 POP PUSH1 0x60 DUP6 ADD CALLDATALOAD PUSH8 0xFFFFFFFFFFFFFFFF DUP2 GT ISZERO PUSH2 0x26D8 JUMPI PUSH1 0x0 DUP1 REVERT JUMPDEST DUP6 ADD PUSH1 0x1F DUP2 ADD DUP8 SGT PUSH2 0x26E9 JUMPI PUSH1 0x0 DUP1 REVERT JUMPDEST PUSH2 0x26F8 DUP8 DUP3 CALLDATALOAD PUSH1 0x20 DUP5 ADD PUSH2 0x2589 JUMP JUMPDEST SWAP2 POP POP SWAP3 SWAP6 SWAP2 SWAP5 POP SWAP3 POP JUMP JUMPDEST PUSH4 0x4E487B71 PUSH1 0xE0 SHL PUSH1 0x0 MSTORE PUSH1 0x21 PUSH1 0x4 MSTORE PUSH1 0x24 PUSH1 0x0 REVERT JUMPDEST PUSH1 0x20 DUP2 ADD PUSH1 0x5 DUP4 LT PUSH2 0x273C JUMPI PUSH4 0x4E487B71 PUSH1 0xE0 SHL PUSH1 0x0 MSTORE PUSH1 0x21 PUSH1 0x4 MSTORE PUSH1 0x24 PUSH1 0x0 REVERT JUMPDEST SWAP2 SWAP1 MSTORE SWAP1 JUMP JUMPDEST PUSH1 0x1 DUP2 DUP2 SHR SWAP1 DUP3 AND DUP1 PUSH2 0x2756 JUMPI PUSH1 0x7F DUP3 AND SWAP2 POP JUMPDEST PUSH1 0x20 DUP3 LT DUP2 EQ ISZERO PUSH2 0x2777 JUMPI PUSH4 0x4E487B71 PUSH1 0xE0 SHL PUSH1 0x0 MSTORE PUSH1 0x22 PUSH1 0x4 MSTORE PUSH1 0x24 PUSH1 0x0 REVERT JUMPDEST POP SWAP2 SWAP1 POP JUMP JUMPDEST PUSH1 0x20 DUP1 DUP3 MSTORE PUSH1 0x26 SWAP1 DUP3 ADD MSTORE PUSH32 0x5061796D656E7453706C69747465723A206163636F756E7420686173206E6F20 PUSH1 0x40 DUP3 ADD MSTORE PUSH6 0x736861726573 PUSH1 0xD0 SHL PUSH1 0x60 DUP3 ADD MSTORE PUSH1 0x80 ADD SWAP1 JUMP JUMPDEST PUSH1 0x20 DUP1 DUP3 MSTORE PUSH1 0x2B SWAP1 DUP3 ADD MSTORE PUSH32 0x5061796D656E7453706C69747465723A206163636F756E74206973206E6F7420 PUSH1 0x40 DUP3 ADD MSTORE PUSH11 0x191D59481C185E5B595B9D PUSH1 0xAA SHL PUSH1 0x60 DUP3 ADD MSTORE PUSH1 0x80 ADD SWAP1 JUMP JUMPDEST PUSH4 0x4E487B71 PUSH1 0xE0 SHL PUSH1 0x0 MSTORE PUSH1 0x11 PUSH1 0x4 MSTORE PUSH1 0x24 PUSH1 0x0 REVERT JUMPDEST PUSH1 0x0 DUP3 NOT DUP3 GT ISZERO PUSH2 0x2837 JUMPI PUSH2 0x2837 PUSH2 0x280E JUMP JUMPDEST POP ADD SWAP1 JUMP JUMPDEST PUSH1 0x0 DUP2 PUSH1 0x0 NOT DIV DUP4 GT DUP3 ISZERO ISZERO AND ISZERO PUSH2 0x2856 JUMPI PUSH2 0x2856 PUSH2 0x280E JUMP JUMPDEST POP MUL SWAP1 JUMP JUMPDEST PUSH1 0x20 DUP1 DUP3 MSTORE DUP2 DUP2 ADD MSTORE PUSH32 0x4F776E61626C653A2063616C6C6572206973206E6F7420746865206F776E6572 PUSH1 0x40 DUP3 ADD MSTORE PUSH1 0x60 ADD SWAP1 JUMP JUMPDEST PUSH1 0x0 PUSH1 0x0 NOT DUP3 EQ ISZERO PUSH2 0x28A4 JUMPI PUSH2 0x28A4 PUSH2 0x280E JUMP JUMPDEST POP PUSH1 0x1 ADD SWAP1 JUMP JUMPDEST PUSH4 0x4E487B71 PUSH1 0xE0 SHL PUSH1 0x0 MSTORE PUSH1 0x32 PUSH1 0x4 MSTORE PUSH1 0x24 PUSH1 0x0 REVERT JUMPDEST PUSH1 0x0 PUSH1 0x20 DUP3 DUP5 SUB SLT ISZERO PUSH2 0x28D3 JUMPI PUSH1 0x0 DUP1 REVERT JUMPDEST POP MLOAD SWAP2 SWAP1 POP JUMP JUMPDEST PUSH1 0x0 DUP2 MLOAD PUSH2 0x28EC DUP2 DUP6 PUSH1 0x20 DUP7 ADD PUSH2 0x238B JUMP JUMPDEST SWAP3 SWAP1 SWAP3 ADD SWAP3 SWAP2 POP POP JUMP JUMPDEST PUSH1 0x0 DUP1 DUP5 SLOAD DUP2 PUSH1 0x1 DUP3 DUP2 SHR SWAP2 POP DUP1 DUP4 AND DUP1 PUSH2 0x2912 JUMPI PUSH1 0x7F DUP4 AND SWAP3 POP JUMPDEST PUSH1 0x20 DUP1 DUP5 LT DUP3 EQ ISZERO PUSH2 0x2932 JUMPI PUSH4 0x4E487B71 PUSH1 0xE0 SHL DUP7 MSTORE PUSH1 0x22 PUSH1 0x4 MSTORE PUSH1 0x24 DUP7 REVERT JUMPDEST DUP2 DUP1 ISZERO PUSH2 0x2946 JUMPI PUSH1 0x1 DUP2 EQ PUSH2 0x2957 JUMPI PUSH2 0x2984 JUMP JUMPDEST PUSH1 0xFF NOT DUP7 AND DUP10 MSTORE DUP5 DUP10 ADD SWAP7 POP PUSH2 0x2984 JUMP JUMPDEST PUSH1 0x0 DUP12 DUP2 MSTORE PUSH1 0x20 SWAP1 KECCAK256 PUSH1 0x0 JUMPDEST DUP7 DUP2 LT ISZERO PUSH2 0x297C JUMPI DUP2 SLOAD DUP12 DUP3 ADD MSTORE SWAP1 DUP6 ADD SWAP1 DUP4 ADD PUSH2 0x2963 JUMP JUMPDEST POP POP DUP5 DUP10 ADD SWAP7 POP JUMPDEST POP POP POP POP POP POP PUSH2 0x29A8 PUSH2 0x2997 DUP3 DUP7 PUSH2 0x28DA JUMP JUMPDEST PUSH5 0x173539B7B7 PUSH1 0xD9 SHL DUP2 MSTORE PUSH1 0x5 ADD SWAP1 JUMP JUMPDEST SWAP6 SWAP5 POP POP POP POP POP JUMP JUMPDEST PUSH4 0x4E487B71 PUSH1 0xE0 SHL PUSH1 0x0 MSTORE PUSH1 0x12 PUSH1 0x4 MSTORE PUSH1 0x24 PUSH1 0x0 REVERT JUMPDEST PUSH1 0x0 DUP3 PUSH2 0x29D6 JUMPI PUSH2 0x29D6 PUSH2 0x29B1 JUMP JUMPDEST POP DIV SWAP1 JUMP JUMPDEST PUSH1 0x0 DUP3 DUP3 LT ISZERO PUSH2 0x29ED JUMPI PUSH2 0x29ED PUSH2 0x280E JUMP JUMPDEST POP SUB SWAP1 JUMP JUMPDEST PUSH1 0x1 PUSH1 0x1 PUSH1 0xA0 SHL SUB DUP6 DUP2 AND DUP3 MSTORE DUP5 AND PUSH1 0x20 DUP3 ADD MSTORE PUSH1 0x40 DUP2 ADD DUP4 SWAP1 MSTORE PUSH1 0x80 PUSH1 0x60 DUP3 ADD DUP2 SWAP1 MSTORE PUSH1 0x0 SWAP1 PUSH2 0x2A25 SWAP1 DUP4 ADD DUP5 PUSH2 0x23B7 JUMP JUMPDEST SWAP7 SWAP6 POP POP POP POP POP POP JUMP JUMPDEST PUSH1 0x0 PUSH1 0x20 DUP3 DUP5 SUB SLT ISZERO PUSH2 0x2A41 JUMPI PUSH1 0x0 DUP1 REVERT JUMPDEST DUP2 MLOAD PUSH2 0x1445 DUP2 PUSH2 0x2358 JUMP JUMPDEST PUSH1 0x0 DUP3 PUSH2 0x2A5B JUMPI PUSH2 0x2A5B PUSH2 0x29B1 JUMP JUMPDEST POP MOD SWAP1 JUMP JUMPDEST PUSH1 0x0 PUSH1 0x20 DUP3 DUP5 SUB SLT ISZERO PUSH2 0x2A72 JUMPI PUSH1 0x0 DUP1 REVERT JUMPDEST DUP2 MLOAD PUSH2 0x1445 DUP2 PUSH2 0x2648 JUMP JUMPDEST PUSH1 0x0 DUP3 MLOAD PUSH2 0x2A8F DUP2 DUP5 PUSH1 0x20 DUP8 ADD PUSH2 0x238B JUMP JUMPDEST SWAP2 SWAP1 SWAP2 ADD SWAP3 SWAP2 POP POP JUMP INVALID LOG2 PUSH5 0x6970667358 0x22 SLT KECCAK256 RETURNDATASIZE EXTCODESIZE SWAP7 0x49 0xC1 PUSH11 0x6A6AE9371A1098479BF3E8 0x2F 0xAF SWAP8 0xC1 0xBF 0xF6 0xBA 0xEF PUSH32 0xAC9A4EC542D964736F6C634300080C0033000000000000000000000000000000 "
		},
		"gasEstimates": {
			"creation": {
				"codeDepositCost": "2191800",
				"executionCost": "infinite",
				"totalCost": "infinite"
			},
			"external": {
				"amountNFTsperWalletWhitelistSale(address)": "2558",
				"approve(address,uint256)": "infinite",
				"balanceOf(address)": "2700",
				"baseURI()": "infinite",
				"getApproved(uint256)": "6948",
				"gift(address,uint256)": "infinite",
				"isApprovedForAll(address,address)": "infinite",
				"merkleRoot()": "2407",
				"name()": "infinite",
				"owner()": "2421",
				"ownerOf(uint256)": "infinite",
				"payee(uint256)": "4687",
				"publicSaleMint(address,uint256)": "infinite",
				"publicSalePrice()": "2362",
				"releasable(address)": "infinite",
				"releasable(address,address)": "infinite",
				"release(address)": "infinite",
				"release(address,address)": "infinite",
				"releaseAll()": "infinite",
				"released(address)": "2665",
				"released(address,address)": "infinite",
				"renounceOwnership()": "28247",
				"safeTransferFrom(address,address,uint256)": "infinite",
				"safeTransferFrom(address,address,uint256,bytes)": "infinite",
				"saleStartTime()": "2363",
				"sellingStep()": "2462",
				"setApprovalForAll(address,bool)": "infinite",
				"setBaseUri(string)": "infinite",
				"setMerkleRoot(bytes32)": "24510",
				"setSaleStartTime(uint256)": "24598",
				"setStep(uint256)": "26806",
				"shares(address)": "2575",
				"supportsInterface(bytes4)": "557",
				"symbol()": "infinite",
				"tokenURI(uint256)": "infinite",
				"totalReleased()": "2380",
				"totalReleased(address)": "2597",
				"totalShares()": "2426",
				"totalSupply()": "4522",
				"transferFrom(address,address,uint256)": "infinite",
				"transferOwnership(address)": "infinite",
				"whitelistMint(address,uint256,bytes32[])": "infinite",
				"wlSalePrice()": "2450"
			},
			"internal": {
				"_verify(bytes32,bytes32[] memory)": "infinite",
				"currentTime()": "infinite",
				"isWhiteListed(address,bytes32[] calldata)": "infinite",
				"leaf(address)": "infinite"
			}
		},
		"methodIdentifiers": {
			"amountNFTsperWalletWhitelistSale(address)": "99d13800",
			"approve(address,uint256)": "095ea7b3",
			"balanceOf(address)": "70a08231",
			"baseURI()": "6c0360eb",
			"getApproved(uint256)": "081812fc",
			"gift(address,uint256)": "cbce4c97",
			"isApprovedForAll(address,address)": "e985e9c5",
			"merkleRoot()": "2eb4a7ab",
			"name()": "06fdde03",
			"owner()": "8da5cb5b",
			"ownerOf(uint256)": "6352211e",
			"payee(uint256)": "8b83209b",
			"publicSaleMint(address,uint256)": "ac5ae11b",
			"publicSalePrice()": "9b6860c8",
			"releasable(address)": "a3f8eace",
			"releasable(address,address)": "c45ac050",
			"release(address)": "19165587",
			"release(address,address)": "48b75044",
			"releaseAll()": "5be7fde8",
			"released(address)": "9852595c",
			"released(address,address)": "406072a9",
			"renounceOwnership()": "715018a6",
			"safeTransferFrom(address,address,uint256)": "42842e0e",
			"safeTransferFrom(address,address,uint256,bytes)": "b88d4fde",
			"saleStartTime()": "1cbaee2d",
			"sellingStep()": "cbccefb2",
			"setApprovalForAll(address,bool)": "a22cb465",
			"setBaseUri(string)": "a0bcfc7f",
			"setMerkleRoot(bytes32)": "7cb64759",
			"setSaleStartTime(uint256)": "525f8a5c",
			"setStep(uint256)": "f8dcbddb",
			"shares(address)": "ce7c2ac2",
			"supportsInterface(bytes4)": "01ffc9a7",
			"symbol()": "95d89b41",
			"tokenURI(uint256)": "c87b56dd",
			"totalReleased()": "e33b7de3",
			"totalReleased(address)": "d79779b2",
			"totalShares()": "3a98ef39",
			"totalSupply()": "18160ddd",
			"transferFrom(address,address,uint256)": "23b872dd",
			"transferOwnership(address)": "f2fde38b",
			"whitelistMint(address,uint256,bytes32[])": "4b11faaf",
			"wlSalePrice()": "734c66bd"
		}
	},
	"abi": [
		{
			"inputs": [
				{
					"internalType": "address[]",
					"name": "_team",
					"type": "address[]"
				},
				{
					"internalType": "uint256[]",
					"name": "_teamShares",
					"type": "uint256[]"
				},
				{
					"internalType": "bytes32",
					"name": "_merkleRoot",
					"type": "bytes32"
				},
				{
					"internalType": "string",
					"name": "_baseURI",
					"type": "string"
				}
			],
			"stateMutability": "nonpayable",
			"type": "constructor"
		},
		{
			"inputs": [],
			"name": "ApprovalCallerNotOwnerNorApproved",
			"type": "error"
		},
		{
			"inputs": [],
			"name": "ApprovalQueryForNonexistentToken",
			"type": "error"
		},
		{
			"inputs": [],
			"name": "ApproveToCaller",
			"type": "error"
		},
		{
			"inputs": [],
			"name": "BalanceQueryForZeroAddress",
			"type": "error"
		},
		{
			"inputs": [],
			"name": "MintERC2309QuantityExceedsLimit",
			"type": "error"
		},
		{
			"inputs": [],
			"name": "MintToZeroAddress",
			"type": "error"
		},
		{
			"inputs": [],
			"name": "MintZeroQuantity",
			"type": "error"
		},
		{
			"inputs": [],
			"name": "OwnerQueryForNonexistentToken",
			"type": "error"
		},
		{
			"inputs": [],
			"name": "OwnershipNotInitializedForExtraData",
			"type": "error"
		},
		{
			"inputs": [],
			"name": "TransferCallerNotOwnerNorApproved",
			"type": "error"
		},
		{
			"inputs": [],
			"name": "TransferFromIncorrectOwner",
			"type": "error"
		},
		{
			"inputs": [],
			"name": "TransferToNonERC721ReceiverImplementer",
			"type": "error"
		},
		{
			"inputs": [],
			"name": "TransferToZeroAddress",
			"type": "error"
		},
		{
			"inputs": [],
			"name": "URIQueryForNonexistentToken",
			"type": "error"
		},
		{
			"anonymous": false,
			"inputs": [
				{
					"indexed": true,
					"internalType": "address",
					"name": "owner",
					"type": "address"
				},
				{
					"indexed": true,
					"internalType": "address",
					"name": "approved",
					"type": "address"
				},
				{
					"indexed": true,
					"internalType": "uint256",
					"name": "tokenId",
					"type": "uint256"
				}
			],
			"name": "Approval",
			"type": "event"
		},
		{
			"anonymous": false,
			"inputs": [
				{
					"indexed": true,
					"internalType": "address",
					"name": "owner",
					"type": "address"
				},
				{
					"indexed": true,
					"internalType": "address",
					"name": "operator",
					"type": "address"
				},
				{
					"indexed": false,
					"internalType": "bool",
					"name": "approved",
					"type": "bool"
				}
			],
			"name": "ApprovalForAll",
			"type": "event"
		},
		{
			"anonymous": false,
			"inputs": [
				{
					"indexed": true,
					"internalType": "uint256",
					"name": "fromTokenId",
					"type": "uint256"
				},
				{
					"indexed": false,
					"internalType": "uint256",
					"name": "toTokenId",
					"type": "uint256"
				},
				{
					"indexed": true,
					"internalType": "address",
					"name": "from",
					"type": "address"
				},
				{
					"indexed": true,
					"internalType": "address",
					"name": "to",
					"type": "address"
				}
			],
			"name": "ConsecutiveTransfer",
			"type": "event"
		},
		{
			"anonymous": false,
			"inputs": [
				{
					"indexed": true,
					"internalType": "contract IERC20",
					"name": "token",
					"type": "address"
				},
				{
					"indexed": false,
					"internalType": "address",
					"name": "to",
					"type": "address"
				},
				{
					"indexed": false,
					"internalType": "uint256",
					"name": "amount",
					"type": "uint256"
				}
			],
			"name": "ERC20PaymentReleased",
			"type": "event"
		},
		{
			"anonymous": false,
			"inputs": [
				{
					"indexed": true,
					"internalType": "address",
					"name": "previousOwner",
					"type": "address"
				},
				{
					"indexed": true,
					"internalType": "address",
					"name": "newOwner",
					"type": "address"
				}
			],
			"name": "OwnershipTransferred",
			"type": "event"
		},
		{
			"anonymous": false,
			"inputs": [
				{
					"indexed": false,
					"internalType": "address",
					"name": "account",
					"type": "address"
				},
				{
					"indexed": false,
					"internalType": "uint256",
					"name": "shares",
					"type": "uint256"
				}
			],
			"name": "PayeeAdded",
			"type": "event"
		},
		{
			"anonymous": false,
			"inputs": [
				{
					"indexed": false,
					"internalType": "address",
					"name": "from",
					"type": "address"
				},
				{
					"indexed": false,
					"internalType": "uint256",
					"name": "amount",
					"type": "uint256"
				}
			],
			"name": "PaymentReceived",
			"type": "event"
		},
		{
			"anonymous": false,
			"inputs": [
				{
					"indexed": false,
					"internalType": "address",
					"name": "to",
					"type": "address"
				},
				{
					"indexed": false,
					"internalType": "uint256",
					"name": "amount",
					"type": "uint256"
				}
			],
			"name": "PaymentReleased",
			"type": "event"
		},
		{
			"anonymous": false,
			"inputs": [
				{
					"indexed": true,
					"internalType": "address",
					"name": "from",
					"type": "address"
				},
				{
					"indexed": true,
					"internalType": "address",
					"name": "to",
					"type": "address"
				},
				{
					"indexed": true,
					"internalType": "uint256",
					"name": "tokenId",
					"type": "uint256"
				}
			],
			"name": "Transfer",
			"type": "event"
		},
		{
			"inputs": [
				{
					"internalType": "address",
					"name": "",
					"type": "address"
				}
			],
			"name": "amountNFTsperWalletWhitelistSale",
			"outputs": [
				{
					"internalType": "uint256",
					"name": "",
					"type": "uint256"
				}
			],
			"stateMutability": "view",
			"type": "function"
		},
		{
			"inputs": [
				{
					"internalType": "address",
					"name": "to",
					"type": "address"
				},
				{
					"internalType": "uint256",
					"name": "tokenId",
					"type": "uint256"
				}
			],
			"name": "approve",
			"outputs": [],
			"stateMutability": "nonpayable",
			"type": "function"
		},
		{
			"inputs": [
				{
					"internalType": "address",
					"name": "owner",
					"type": "address"
				}
			],
			"name": "balanceOf",
			"outputs": [
				{
					"internalType": "uint256",
					"name": "",
					"type": "uint256"
				}
			],
			"stateMutability": "view",
			"type": "function"
		},
		{
			"inputs": [],
			"name": "baseURI",
			"outputs": [
				{
					"internalType": "string",
					"name": "",
					"type": "string"
				}
			],
			"stateMutability": "view",
			"type": "function"
		},
		{
			"inputs": [
				{
					"internalType": "uint256",
					"name": "tokenId",
					"type": "uint256"
				}
			],
			"name": "getApproved",
			"outputs": [
				{
					"internalType": "address",
					"name": "",
					"type": "address"
				}
			],
			"stateMutability": "view",
			"type": "function"
		},
		{
			"inputs": [
				{
					"internalType": "address",
					"name": "_to",
					"type": "address"
				},
				{
					"internalType": "uint256",
					"name": "_quantity",
					"type": "uint256"
				}
			],
			"name": "gift",
			"outputs": [],
			"stateMutability": "nonpayable",
			"type": "function"
		},
		{
			"inputs": [
				{
					"internalType": "address",
					"name": "owner",
					"type": "address"
				},
				{
					"internalType": "address",
					"name": "operator",
					"type": "address"
				}
			],
			"name": "isApprovedForAll",
			"outputs": [
				{
					"internalType": "bool",
					"name": "",
					"type": "bool"
				}
			],
			"stateMutability": "view",
			"type": "function"
		},
		{
			"inputs": [],
			"name": "merkleRoot",
			"outputs": [
				{
					"internalType": "bytes32",
					"name": "",
					"type": "bytes32"
				}
			],
			"stateMutability": "view",
			"type": "function"
		},
		{
			"inputs": [],
			"name": "name",
			"outputs": [
				{
					"internalType": "string",
					"name": "",
					"type": "string"
				}
			],
			"stateMutability": "view",
			"type": "function"
		},
		{
			"inputs": [],
			"name": "owner",
			"outputs": [
				{
					"internalType": "address",
					"name": "",
					"type": "address"
				}
			],
			"stateMutability": "view",
			"type": "function"
		},
		{
			"inputs": [
				{
					"internalType": "uint256",
					"name": "tokenId",
					"type": "uint256"
				}
			],
			"name": "ownerOf",
			"outputs": [
				{
					"internalType": "address",
					"name": "",
					"type": "address"
				}
			],
			"stateMutability": "view",
			"type": "function"
		},
		{
			"inputs": [
				{
					"internalType": "uint256",
					"name": "index",
					"type": "uint256"
				}
			],
			"name": "payee",
			"outputs": [
				{
					"internalType": "address",
					"name": "",
					"type": "address"
				}
			],
			"stateMutability": "view",
			"type": "function"
		},
		{
			"inputs": [
				{
					"internalType": "address",
					"name": "_account",
					"type": "address"
				},
				{
					"internalType": "uint256",
					"name": "_quantity",
					"type": "uint256"
				}
			],
			"name": "publicSaleMint",
			"outputs": [],
			"stateMutability": "payable",
			"type": "function"
		},
		{
			"inputs": [],
			"name": "publicSalePrice",
			"outputs": [
				{
					"internalType": "uint256",
					"name": "",
					"type": "uint256"
				}
			],
			"stateMutability": "view",
			"type": "function"
		},
		{
			"inputs": [
				{
					"internalType": "address",
					"name": "account",
					"type": "address"
				}
			],
			"name": "releasable",
			"outputs": [
				{
					"internalType": "uint256",
					"name": "",
					"type": "uint256"
				}
			],
			"stateMutability": "view",
			"type": "function"
		},
		{
			"inputs": [
				{
					"internalType": "contract IERC20",
					"name": "token",
					"type": "address"
				},
				{
					"internalType": "address",
					"name": "account",
					"type": "address"
				}
			],
			"name": "releasable",
			"outputs": [
				{
					"internalType": "uint256",
					"name": "",
					"type": "uint256"
				}
			],
			"stateMutability": "view",
			"type": "function"
		},
		{
			"inputs": [
				{
					"internalType": "address payable",
					"name": "account",
					"type": "address"
				}
			],
			"name": "release",
			"outputs": [],
			"stateMutability": "nonpayable",
			"type": "function"
		},
		{
			"inputs": [
				{
					"internalType": "contract IERC20",
					"name": "token",
					"type": "address"
				},
				{
					"internalType": "address",
					"name": "account",
					"type": "address"
				}
			],
			"name": "release",
			"outputs": [],
			"stateMutability": "nonpayable",
			"type": "function"
		},
		{
			"inputs": [],
			"name": "releaseAll",
			"outputs": [],
			"stateMutability": "nonpayable",
			"type": "function"
		},
		{
			"inputs": [
				{
					"internalType": "contract IERC20",
					"name": "token",
					"type": "address"
				},
				{
					"internalType": "address",
					"name": "account",
					"type": "address"
				}
			],
			"name": "released",
			"outputs": [
				{
					"internalType": "uint256",
					"name": "",
					"type": "uint256"
				}
			],
			"stateMutability": "view",
			"type": "function"
		},
		{
			"inputs": [
				{
					"internalType": "address",
					"name": "account",
					"type": "address"
				}
			],
			"name": "released",
			"outputs": [
				{
					"internalType": "uint256",
					"name": "",
					"type": "uint256"
				}
			],
			"stateMutability": "view",
			"type": "function"
		},
		{
			"inputs": [],
			"name": "renounceOwnership",
			"outputs": [],
			"stateMutability": "nonpayable",
			"type": "function"
		},
		{
			"inputs": [
				{
					"internalType": "address",
					"name": "from",
					"type": "address"
				},
				{
					"internalType": "address",
					"name": "to",
					"type": "address"
				},
				{
					"internalType": "uint256",
					"name": "tokenId",
					"type": "uint256"
				}
			],
			"name": "safeTransferFrom",
			"outputs": [],
			"stateMutability": "nonpayable",
			"type": "function"
		},
		{
			"inputs": [
				{
					"internalType": "address",
					"name": "from",
					"type": "address"
				},
				{
					"internalType": "address",
					"name": "to",
					"type": "address"
				},
				{
					"internalType": "uint256",
					"name": "tokenId",
					"type": "uint256"
				},
				{
					"internalType": "bytes",
					"name": "_data",
					"type": "bytes"
				}
			],
			"name": "safeTransferFrom",
			"outputs": [],
			"stateMutability": "nonpayable",
			"type": "function"
		},
		{
			"inputs": [],
			"name": "saleStartTime",
			"outputs": [
				{
					"internalType": "uint256",
					"name": "",
					"type": "uint256"
				}
			],
			"stateMutability": "view",
			"type": "function"
		},
		{
			"inputs": [],
			"name": "sellingStep",
			"outputs": [
				{
					"internalType": "enum NFTERC721A.Step",
					"name": "",
					"type": "uint8"
				}
			],
			"stateMutability": "view",
			"type": "function"
		},
		{
			"inputs": [
				{
					"internalType": "address",
					"name": "operator",
					"type": "address"
				},
				{
					"internalType": "bool",
					"name": "approved",
					"type": "bool"
				}
			],
			"name": "setApprovalForAll",
			"outputs": [],
			"stateMutability": "nonpayable",
			"type": "function"
		},
		{
			"inputs": [
				{
					"internalType": "string",
					"name": "_baseURI",
					"type": "string"
				}
			],
			"name": "setBaseUri",
			"outputs": [],
			"stateMutability": "nonpayable",
			"type": "function"
		},
		{
			"inputs": [
				{
					"internalType": "bytes32",
					"name": "_merkleRoot",
					"type": "bytes32"
				}
			],
			"name": "setMerkleRoot",
			"outputs": [],
			"stateMutability": "nonpayable",
			"type": "function"
		},
		{
			"inputs": [
				{
					"internalType": "uint256",
					"name": "_saleStartTime",
					"type": "uint256"
				}
			],
			"name": "setSaleStartTime",
			"outputs": [],
			"stateMutability": "nonpayable",
			"type": "function"
		},
		{
			"inputs": [
				{
					"internalType": "uint256",
					"name": "_step",
					"type": "uint256"
				}
			],
			"name": "setStep",
			"outputs": [],
			"stateMutability": "nonpayable",
			"type": "function"
		},
		{
			"inputs": [
				{
					"internalType": "address",
					"name": "account",
					"type": "address"
				}
			],
			"name": "shares",
			"outputs": [
				{
					"internalType": "uint256",
					"name": "",
					"type": "uint256"
				}
			],
			"stateMutability": "view",
			"type": "function"
		},
		{
			"inputs": [
				{
					"internalType": "bytes4",
					"name": "interfaceId",
					"type": "bytes4"
				}
			],
			"name": "supportsInterface",
			"outputs": [
				{
					"internalType": "bool",
					"name": "",
					"type": "bool"
				}
			],
			"stateMutability": "view",
			"type": "function"
		},
		{
			"inputs": [],
			"name": "symbol",
			"outputs": [
				{
					"internalType": "string",
					"name": "",
					"type": "string"
				}
			],
			"stateMutability": "view",
			"type": "function"
		},
		{
			"inputs": [
				{
					"internalType": "uint256",
					"name": "_tokenId",
					"type": "uint256"
				}
			],
			"name": "tokenURI",
			"outputs": [
				{
					"internalType": "string",
					"name": "",
					"type": "string"
				}
			],
			"stateMutability": "view",
			"type": "function"
		},
		{
			"inputs": [
				{
					"internalType": "contract IERC20",
					"name": "token",
					"type": "address"
				}
			],
			"name": "totalReleased",
			"outputs": [
				{
					"internalType": "uint256",
					"name": "",
					"type": "uint256"
				}
			],
			"stateMutability": "view",
			"type": "function"
		},
		{
			"inputs": [],
			"name": "totalReleased",
			"outputs": [
				{
					"internalType": "uint256",
					"name": "",
					"type": "uint256"
				}
			],
			"stateMutability": "view",
			"type": "function"
		},
		{
			"inputs": [],
			"name": "totalShares",
			"outputs": [
				{
					"internalType": "uint256",
					"name": "",
					"type": "uint256"
				}
			],
			"stateMutability": "view",
			"type": "function"
		},
		{
			"inputs": [],
			"name": "totalSupply",
			"outputs": [
				{
					"internalType": "uint256",
					"name": "",
					"type": "uint256"
				}
			],
			"stateMutability": "view",
			"type": "function"
		},
		{
			"inputs": [
				{
					"internalType": "address",
					"name": "from",
					"type": "address"
				},
				{
					"internalType": "address",
					"name": "to",
					"type": "address"
				},
				{
					"internalType": "uint256",
					"name": "tokenId",
					"type": "uint256"
				}
			],
			"name": "transferFrom",
			"outputs": [],
			"stateMutability": "nonpayable",
			"type": "function"
		},
		{
			"inputs": [
				{
					"internalType": "address",
					"name": "newOwner",
					"type": "address"
				}
			],
			"name": "transferOwnership",
			"outputs": [],
			"stateMutability": "nonpayable",
			"type": "function"
		},
		{
			"inputs": [
				{
					"internalType": "address",
					"name": "_account",
					"type": "address"
				},
				{
					"internalType": "uint256",
					"name": "_quantity",
					"type": "uint256"
				},
				{
					"internalType": "bytes32[]",
					"name": "_proof",
					"type": "bytes32[]"
				}
			],
			"name": "whitelistMint",
			"outputs": [],
			"stateMutability": "payable",
			"type": "function"
		},
		{
			"inputs": [],
			"name": "wlSalePrice",
			"outputs": [
				{
					"internalType": "uint256",
					"name": "",
					"type": "uint256"
				}
			],
			"stateMutability": "view",
			"type": "function"
		},
		{
			"stateMutability": "payable",
			"type": "receive"
		}
	]
}